{
  "contracts/GuardianProxy.sol": {
    "GuardianProxy": {
      "abi": [
        {
          "inputs": [
            {
              "internalType": "address",
              "name": "_sentinelEngine",
              "type": "address"
            }
          ],
          "stateMutability": "nonpayable",
          "type": "constructor"
        },
        {
          "inputs": [],
          "name": "AccessControlBadConfirmation",
          "type": "error"
        },
        {
          "inputs": [
            {
              "internalType": "address",
              "name": "account",
              "type": "address"
            },
            {
              "internalType": "bytes32",
              "name": "neededRole",
              "type": "bytes32"
            }
          ],
          "name": "AccessControlUnauthorizedAccount",
          "type": "error"
        },
        {
          "inputs": [],
          "name": "EnforcedPause",
          "type": "error"
        },
        {
          "inputs": [],
          "name": "ExpectedPause",
          "type": "error"
        },
        {
          "anonymous": false,
          "inputs": [
            {
              "indexed": true,
              "internalType": "address",
              "name": "protocol",
              "type": "address"
            },
            {
              "indexed": false,
              "internalType": "uint256",
              "name": "timestamp",
              "type": "uint256"
            }
          ],
          "name": "CircuitBreakerActivated",
          "type": "event"
        },
        {
          "anonymous": false,
          "inputs": [
            {
              "indexed": false,
              "internalType": "address",
              "name": "account",
              "type": "address"
            }
          ],
          "name": "Paused",
          "type": "event"
        },
        {
          "anonymous": false,
          "inputs": [
            {
              "indexed": true,
              "internalType": "address",
              "name": "protocol",
              "type": "address"
            }
          ],
          "name": "ProtocolRegistered",
          "type": "event"
        },
        {
          "anonymous": false,
          "inputs": [
            {
              "indexed": true,
              "internalType": "bytes32",
              "name": "role",
              "type": "bytes32"
            },
            {
              "indexed": true,
              "internalType": "bytes32",
              "name": "previousAdminRole",
              "type": "bytes32"
            },
            {
              "indexed": true,
              "internalType": "bytes32",
              "name": "newAdminRole",
              "type": "bytes32"
            }
          ],
          "name": "RoleAdminChanged",
          "type": "event"
        },
        {
          "anonymous": false,
          "inputs": [
            {
              "indexed": true,
              "internalType": "bytes32",
              "name": "role",
              "type": "bytes32"
            },
            {
              "indexed": true,
              "internalType": "address",
              "name": "account",
              "type": "address"
            },
            {
              "indexed": true,
              "internalType": "address",
              "name": "sender",
              "type": "address"
            }
          ],
          "name": "RoleGranted",
          "type": "event"
        },
        {
          "anonymous": false,
          "inputs": [
            {
              "indexed": true,
              "internalType": "bytes32",
              "name": "role",
              "type": "bytes32"
            },
            {
              "indexed": true,
              "internalType": "address",
              "name": "account",
              "type": "address"
            },
            {
              "indexed": true,
              "internalType": "address",
              "name": "sender",
              "type": "address"
            }
          ],
          "name": "RoleRevoked",
          "type": "event"
        },
        {
          "anonymous": false,
          "inputs": [
            {
              "indexed": true,
              "internalType": "address",
              "name": "attacker",
              "type": "address"
            },
            {
              "indexed": false,
              "internalType": "uint32",
              "name": "signatureId",
              "type": "uint32"
            },
            {
              "indexed": false,
              "internalType": "uint8",
              "name": "threatLevel",
              "type": "uint8"
            }
          ],
          "name": "ThreatDetected",
          "type": "event"
        },
        {
          "anonymous": false,
          "inputs": [
            {
              "indexed": true,
              "internalType": "address",
              "name": "attacker",
              "type": "address"
            },
            {
              "indexed": false,
              "internalType": "string",
              "name": "reason",
              "type": "string"
            }
          ],
          "name": "TransactionBlocked",
          "type": "event"
        },
        {
          "anonymous": false,
          "inputs": [
            {
              "indexed": true,
              "internalType": "address",
              "name": "sender",
              "type": "address"
            },
            {
              "indexed": true,
              "internalType": "address",
              "name": "protocol",
              "type": "address"
            },
            {
              "indexed": false,
              "internalType": "uint8",
              "name": "threatLevel",
              "type": "uint8"
            },
            {
              "indexed": false,
              "internalType": "uint8",
              "name": "confidence",
              "type": "uint8"
            }
          ],
          "name": "TransactionScanned",
          "type": "event"
        },
        {
          "anonymous": false,
          "inputs": [
            {
              "indexed": false,
              "internalType": "address",
              "name": "account",
              "type": "address"
            }
          ],
          "name": "Unpaused",
          "type": "event"
        },
        {
          "inputs": [],
          "name": "DEFAULT_ADMIN_ROLE",
          "outputs": [
            {
              "internalType": "bytes32",
              "name": "",
              "type": "bytes32"
            }
          ],
          "stateMutability": "view",
          "type": "function"
        },
        {
          "inputs": [],
          "name": "GUARDIAN_ROLE",
          "outputs": [
            {
              "internalType": "bytes32",
              "name": "",
              "type": "bytes32"
            }
          ],
          "stateMutability": "view",
          "type": "function"
        },
        {
          "inputs": [
            {
              "internalType": "address",
              "name": "",
              "type": "address"
            },
            {
              "internalType": "uint256",
              "name": "",
              "type": "uint256"
            }
          ],
          "name": "blockCumulativeValue",
          "outputs": [
            {
              "internalType": "uint256",
              "name": "",
              "type": "uint256"
            }
          ],
          "stateMutability": "view",
          "type": "function"
        },
        {
          "inputs": [
            {
              "internalType": "address",
              "name": "",
              "type": "address"
            },
            {
              "internalType": "uint256",
              "name": "",
              "type": "uint256"
            }
          ],
          "name": "blockWithdrawals",
          "outputs": [
            {
              "internalType": "uint256",
              "name": "",
              "type": "uint256"
            }
          ],
          "stateMutability": "view",
          "type": "function"
        },
        {
          "inputs": [
            {
              "internalType": "uint256[10]",
              "name": "features",
              "type": "uint256[10]"
            }
          ],
          "name": "classifyView",
          "outputs": [
            {
              "internalType": "uint8",
              "name": "threatLevel",
              "type": "uint8"
            },
            {
              "internalType": "uint8",
              "name": "confidence",
              "type": "uint8"
            },
            {
              "internalType": "uint32",
              "name": "signatureId",
              "type": "uint32"
            }
          ],
          "stateMutability": "pure",
          "type": "function"
        },
        {
          "inputs": [],
          "name": "criticalCount",
          "outputs": [
            {
              "internalType": "uint256",
              "name": "",
              "type": "uint256"
            }
          ],
          "stateMutability": "view",
          "type": "function"
        },
        {
          "inputs": [],
          "name": "deployBlock",
          "outputs": [
            {
              "internalType": "uint256",
              "name": "",
              "type": "uint256"
            }
          ],
          "stateMutability": "view",
          "type": "function"
        },
        {
          "inputs": [],
          "name": "emergencyPause",
          "outputs": [],
          "stateMutability": "nonpayable",
          "type": "function"
        },
        {
          "inputs": [],
          "name": "emergencyUnpause",
          "outputs": [],
          "stateMutability": "nonpayable",
          "type": "function"
        },
        {
          "inputs": [
            {
              "internalType": "address",
              "name": "",
              "type": "address"
            }
          ],
          "name": "firstSeen",
          "outputs": [
            {
              "internalType": "uint256",
              "name": "",
              "type": "uint256"
            }
          ],
          "stateMutability": "view",
          "type": "function"
        },
        {
          "inputs": [
            {
              "internalType": "bytes32",
              "name": "txHash",
              "type": "bytes32"
            }
          ],
          "name": "getReport",
          "outputs": [
            {
              "components": [
                {
                  "internalType": "uint8",
                  "name": "threatLevel",
                  "type": "uint8"
                },
                {
                  "internalType": "uint8",
                  "name": "confidence",
                  "type": "uint8"
                },
                {
                  "internalType": "uint32",
                  "name": "signatureId",
                  "type": "uint32"
                },
                {
                  "internalType": "address",
                  "name": "sender",
                  "type": "address"
                },
                {
                  "internalType": "uint256",
                  "name": "timestamp",
                  "type": "uint256"
                },
                {
                  "internalType": "bool",
                  "name": "blocked",
                  "type": "bool"
                }
              ],
              "internalType": "struct IPolkaSentinel.ThreatReport",
              "name": "",
              "type": "tuple"
            }
          ],
          "stateMutability": "view",
          "type": "function"
        },
        {
          "inputs": [
            {
              "internalType": "bytes32",
              "name": "role",
              "type": "bytes32"
            }
          ],
          "name": "getRoleAdmin",
          "outputs": [
            {
              "internalType": "bytes32",
              "name": "",
              "type": "bytes32"
            }
          ],
          "stateMutability": "view",
          "type": "function"
        },
        {
          "inputs": [],
          "name": "getStats",
          "outputs": [
            {
              "internalType": "uint256",
              "name": "",
              "type": "uint256"
            },
            {
              "internalType": "uint256",
              "name": "",
              "type": "uint256"
            }
          ],
          "stateMutability": "view",
          "type": "function"
        },
        {
          "inputs": [],
          "name": "globalThreshold",
          "outputs": [
            {
              "internalType": "uint8",
              "name": "",
              "type": "uint8"
            }
          ],
          "stateMutability": "view",
          "type": "function"
        },
        {
          "inputs": [
            {
              "internalType": "bytes32",
              "name": "role",
              "type": "bytes32"
            },
            {
              "internalType": "address",
              "name": "account",
              "type": "address"
            }
          ],
          "name": "grantRole",
          "outputs": [],
          "stateMutability": "nonpayable",
          "type": "function"
        },
        {
          "inputs": [
            {
              "internalType": "bytes",
              "name": "txData",
              "type": "bytes"
            },
            {
              "internalType": "uint256",
              "name": "withdrawAmount",
              "type": "uint256"
            },
            {
              "internalType": "uint256",
              "name": "vaultBalance",
              "type": "uint256"
            }
          ],
          "name": "guard",
          "outputs": [
            {
              "internalType": "bool",
              "name": "allowed",
              "type": "bool"
            },
            {
              "internalType": "uint8",
              "name": "threatLevel",
              "type": "uint8"
            },
            {
              "internalType": "uint8",
              "name": "confidence",
              "type": "uint8"
            }
          ],
          "stateMutability": "nonpayable",
          "type": "function"
        },
        {
          "inputs": [],
          "name": "guardComplete",
          "outputs": [],
          "stateMutability": "nonpayable",
          "type": "function"
        },
        {
          "inputs": [
            {
              "internalType": "bytes32",
              "name": "role",
              "type": "bytes32"
            },
            {
              "internalType": "address",
              "name": "account",
              "type": "address"
            }
          ],
          "name": "hasRole",
          "outputs": [
            {
              "internalType": "bool",
              "name": "",
              "type": "bool"
            }
          ],
          "stateMutability": "view",
          "type": "function"
        },
        {
          "inputs": [],
          "name": "paused",
          "outputs": [
            {
              "internalType": "bool",
              "name": "",
              "type": "bool"
            }
          ],
          "stateMutability": "view",
          "type": "function"
        },
        {
          "inputs": [
            {
              "internalType": "address",
              "name": "",
              "type": "address"
            }
          ],
          "name": "protocolRegistry",
          "outputs": [
            {
              "internalType": "bool",
              "name": "",
              "type": "bool"
            }
          ],
          "stateMutability": "view",
          "type": "function"
        },
        {
          "inputs": [
            {
              "internalType": "address",
              "name": "protocol",
              "type": "address"
            }
          ],
          "name": "registerProtocol",
          "outputs": [],
          "stateMutability": "nonpayable",
          "type": "function"
        },
        {
          "inputs": [
            {
              "internalType": "bytes32",
              "name": "role",
              "type": "bytes32"
            },
            {
              "internalType": "address",
              "name": "callerConfirmation",
              "type": "address"
            }
          ],
          "name": "renounceRole",
          "outputs": [],
          "stateMutability": "nonpayable",
          "type": "function"
        },
        {
          "inputs": [
            {
              "internalType": "bytes32",
              "name": "role",
              "type": "bytes32"
            },
            {
              "internalType": "address",
              "name": "account",
              "type": "address"
            }
          ],
          "name": "revokeRole",
          "outputs": [],
          "stateMutability": "nonpayable",
          "type": "function"
        },
        {
          "inputs": [],
          "name": "sentinelEngine",
          "outputs": [
            {
              "internalType": "address",
              "name": "",
              "type": "address"
            }
          ],
          "stateMutability": "view",
          "type": "function"
        },
        {
          "inputs": [
            {
              "internalType": "address",
              "name": "engine",
              "type": "address"
            }
          ],
          "name": "setSentinelEngine",
          "outputs": [],
          "stateMutability": "nonpayable",
          "type": "function"
        },
        {
          "inputs": [
            {
              "internalType": "uint8",
              "name": "level",
              "type": "uint8"
            }
          ],
          "name": "setThreshold",
          "outputs": [],
          "stateMutability": "nonpayable",
          "type": "function"
        },
        {
          "inputs": [
            {
              "internalType": "bytes4",
              "name": "interfaceId",
              "type": "bytes4"
            }
          ],
          "name": "supportsInterface",
          "outputs": [
            {
              "internalType": "bool",
              "name": "",
              "type": "bool"
            }
          ],
          "stateMutability": "view",
          "type": "function"
        },
        {
          "inputs": [
            {
              "internalType": "bytes32",
              "name": "",
              "type": "bytes32"
            }
          ],
          "name": "threatLogs",
          "outputs": [
            {
              "internalType": "uint8",
              "name": "threatLevel",
              "type": "uint8"
            },
            {
              "internalType": "uint8",
              "name": "confidence",
              "type": "uint8"
            },
            {
              "internalType": "uint32",
              "name": "signatureId",
              "type": "uint32"
            },
            {
              "internalType": "address",
              "name": "sender",
              "type": "address"
            },
            {
              "internalType": "uint256",
              "name": "timestamp",
              "type": "uint256"
            },
            {
              "internalType": "bool",
              "name": "blocked",
              "type": "bool"
            }
          ],
          "stateMutability": "view",
          "type": "function"
        },
        {
          "inputs": [],
          "name": "totalBlocked",
          "outputs": [
            {
              "internalType": "uint256",
              "name": "",
              "type": "uint256"
            }
          ],
          "stateMutability": "view",
          "type": "function"
        },
        {
          "inputs": [],
          "name": "totalScanned",
          "outputs": [
            {
              "internalType": "uint256",
              "name": "",
              "type": "uint256"
            }
          ],
          "stateMutability": "view",
          "type": "function"
        }
      ],
      "evm": {
        "bytecode": {
          "linkReferences": {},
          "object": "60a06040523480156200001157600080fd5b506040516200328e3803806200328e8339818101604052810190620000379190620002ca565b6200004c6000801b33620000eb60201b60201c565b506200007f7f55435dd261a4b9b3364963f7738a7a662ad9c84396d64be3365284bb7f0a504133620000eb60201b60201c565b50806001806101000a81548173ffffffffffffffffffffffffffffffffffffffff021916908373ffffffffffffffffffffffffffffffffffffffff1602179055506002600160156101000a81548160ff021916908360ff160217905550436080818152505050620002fc565b6000620000ff8383620001ee60201b60201c565b620001e357600160008085815260200190815260200160002060000160008473ffffffffffffffffffffffffffffffffffffffff1673ffffffffffffffffffffffffffffffffffffffff16815260200190815260200160002060006101000a81548160ff0219169083151502179055506200017f6200025860201b60201c565b73ffffffffffffffffffffffffffffffffffffffff168273ffffffffffffffffffffffffffffffffffffffff16847f2f8788117e7eff1d82e926ec794901d17c78024a50270940304540a733656f0d60405160405180910390a460019050620001e8565b600090505b92915050565b600080600084815260200190815260200160002060000160008373ffffffffffffffffffffffffffffffffffffffff1673ffffffffffffffffffffffffffffffffffffffff16815260200190815260200160002060009054906101000a900460ff16905092915050565b600033905090565b600080fd5b600073ffffffffffffffffffffffffffffffffffffffff82169050919050565b6000620002928262000265565b9050919050565b620002a48162000285565b8114620002b057600080fd5b50565b600081519050620002c48162000299565b92915050565b600060208284031215620002e357620002e262000260565b5b6000620002f384828501620002b3565b91505092915050565b608051612f6f6200031f600039600081816110d701526118fb0152612f6f6000f3fe608060405234801561001057600080fd5b50600436106101da5760003560e01c806380a1643111610104578063b104520b116100a2578063d7067df711610071578063d7067df714610563578063e326ac4314610581578063e5a98603146105b1578063f11929d0146105cd576101da565b8063b104520b146104d8578063b603be001461050a578063c59d484714610528578063d547741f14610547576101da565b806391d14854116100de57806391d148541461044e5780639594e37b1461047e578063a217fddf1461049c578063a3ec191a146104ba576101da565b806380a16431146103cb57806387b94d7f146103fd57806390265e2414610432576101da565b80632f2ff15d1161017c5780634a4e3bd51161014b5780634a4e3bd5146103695780634f95ceed1461037357806351858e27146103a35780635c975abb146103ad576101da565b80632f2ff15d146102d157806335aa647c146102ed57806336568abe1461031d5780633823be0014610339576101da565b80631c80291e116101b85780631c80291e14610249578063248a9ca31461026757806324ea54f414610297578063260e40d2146102b5576101da565b806301ffc9a7146101df578063164459a31461020f578063171c4f1114610219575b600080fd5b6101f960048036038101906101f49190612015565b6105eb565b604051610206919061205d565b60405180910390f35b610217610665565b005b610233600480360381019061022e91906120ae565b61073e565b60405161024091906121fa565b60405180910390f35b610251610846565b60405161025e9190612224565b60405180910390f35b610281600480360381019061027c91906120ae565b610859565b60405161028e919061224e565b60405180910390f35b61029f610878565b6040516102ac919061224e565b60405180910390f35b6102cf60048036038101906102ca9190612295565b61089c565b005b6102eb60048036038101906102e691906122c2565b610a43565b005b6103076004803603810190610302919061232e565b610a65565b604051610314919061237d565b60405180910390f35b610337600480360381019061033291906122c2565b610a8a565b005b610353600480360381019061034e9190612295565b610b05565b604051610360919061205d565b60405180910390f35b610371610b25565b005b61038d6004803603810190610388919061232e565b610b45565b60405161039a919061237d565b60405180910390f35b6103ab610b6a565b005b6103b5610bed565b6040516103c2919061205d565b60405180910390f35b6103e560048036038101906103e091906123fd565b610c04565b6040516103f493929190612471565b60405180910390f35b610417600480360381019061041291906120ae565b611780565b604051610429969594939291906124c6565b60405180910390f35b61044c60048036038101906104479190612295565b611813565b005b610468600480360381019061046391906122c2565b611864565b604051610475919061205d565b60405180910390f35b6104866118ce565b6040516104939190612527565b60405180910390f35b6104a46118f2565b6040516104b1919061224e565b60405180910390f35b6104c26118f9565b6040516104cf919061237d565b60405180910390f35b6104f260048036038101906104ed919061267f565b61191d565b604051610501939291906126ad565b60405180910390f35b610512611938565b60405161051f919061237d565b60405180910390f35b61053061193e565b60405161053e9291906126e4565b60405180910390f35b610561600480360381019061055c91906122c2565b61194f565b005b61056b611971565b604051610578919061237d565b60405180910390f35b61059b60048036038101906105969190612295565b611977565b6040516105a8919061237d565b60405180910390f35b6105cb60048036038101906105c69190612739565b61198f565b005b6105d5611a12565b6040516105e2919061237d565b60405180910390f35b60007f7965db0b000000000000000000000000000000000000000000000000000000007bffffffffffffffffffffffffffffffffffffffffffffffffffffffff1916827bffffffffffffffffffffffffffffffffffffffffffffffffffffffff1916148061065e575061065d82611a18565b5b9050919050565b6000600660003373ffffffffffffffffffffffffffffffffffffffff1673ffffffffffffffffffffffffffffffffffffffff16815260200190815260200160002054116106e7576040517f08c379a00000000000000000000000000000000000000000000000000000000081526004016106de906127c3565b60405180910390fd5b600660003373ffffffffffffffffffffffffffffffffffffffff1673ffffffffffffffffffffffffffffffffffffffff168152602001908152602001600020600081548092919061073790612812565b9190505550565b610746611f2c565b600560008381526020019081526020016000206040518060c00160405290816000820160009054906101000a900460ff1660ff1660ff1681526020016000820160019054906101000a900460ff1660ff1660ff1681526020016000820160029054906101000a900463ffffffff1663ffffffff1663ffffffff1681526020016000820160069054906101000a900473ffffffffffffffffffffffffffffffffffffffff1673ffffffffffffffffffffffffffffffffffffffff1673ffffffffffffffffffffffffffffffffffffffff168152602001600182015481526020016002820160009054906101000a900460ff1615151515815250509050919050565b600160159054906101000a900460ff1681565b6000806000838152602001908152602001600020600101549050919050565b7f55435dd261a4b9b3364963f7738a7a662ad9c84396d64be3365284bb7f0a504181565b6000801b6108a981611a82565b600073ffffffffffffffffffffffffffffffffffffffff168273ffffffffffffffffffffffffffffffffffffffff1603610918576040517f08c379a000000000000000000000000000000000000000000000000000000000815260040161090f90612887565b60405180910390fd5b6001600460008473ffffffffffffffffffffffffffffffffffffffff1673ffffffffffffffffffffffffffffffffffffffff16815260200190815260200160002060006101000a81548160ff0219169083151502179055506000600760008473ffffffffffffffffffffffffffffffffffffffff1673ffffffffffffffffffffffffffffffffffffffff16815260200190815260200160002054036109fc5743600760008473ffffffffffffffffffffffffffffffffffffffff1673ffffffffffffffffffffffffffffffffffffffff168152602001908152602001600020819055505b8173ffffffffffffffffffffffffffffffffffffffff167f2ae7694f6d6d0e61a4594115ed648bde2e30164506ce300c676af9f1d6448da060405160405180910390a25050565b610a4c82610859565b610a5581611a82565b610a5f8383611a96565b50505050565b6008602052816000526040600020602052806000526040600020600091509150505481565b610a92611b87565b73ffffffffffffffffffffffffffffffffffffffff168173ffffffffffffffffffffffffffffffffffffffff1614610af6576040517f6697b23200000000000000000000000000000000000000000000000000000000815260040160405180910390fd5b610b008282611b8f565b505050565b60046020528060005260406000206000915054906101000a900460ff1681565b6000801b610b3281611a82565b610b3a611c81565b6000600a8190555050565b6009602052816000526040600020602052806000526040600020600091509150505481565b7f55435dd261a4b9b3364963f7738a7a662ad9c84396d64be3365284bb7f0a5041610b9481611a82565b610b9c611ce4565b3373ffffffffffffffffffffffffffffffffffffffff167f2d408fc0a988b72d61b26cb422fb9f672b79b538a90fae7c59cb42ba4945652a42604051610be2919061237d565b60405180910390a250565b6000600160009054906101000a900460ff16905090565b6000806000610c11611d46565b6000600660003373ffffffffffffffffffffffffffffffffffffffff1673ffffffffffffffffffffffffffffffffffffffff168152602001908152602001600020541115610db15760026000815480929190610c6c906128a7565b919050555060036000815480929190610c84906128a7565b9190505550600a6000815480929190610c9c906128a7565b91905055503373ffffffffffffffffffffffffffffffffffffffff167fa7294a043fb42f56dfcc6a7ea6cea67839be9b3950bb784e60d1377b860588d5600c6002604051610ceb92919061296f565b60405180910390a23373ffffffffffffffffffffffffffffffffffffffff167faac79cc982c643ee6435f139df32ff2473edeb42053642fe708c33236c1143d0604051610d3790612a0a565b60405180910390a26003600a5410610da057610d51611ce4565b3373ffffffffffffffffffffffffffffffffffffffff167f2d408fc0a988b72d61b26cb422fb9f672b79b538a90fae7c59cb42ba4945652a42604051610d97919061237d565b60405180910390a25b600060026063925092509250611776565b600660003373ffffffffffffffffffffffffffffffffffffffff1673ffffffffffffffffffffffffffffffffffffffff1681526020019081526020016000206000815480929190610e01906128a7565b9190505550610e0e611f86565b6000816000600a8110610e2457610e23612a2a565b5b60200201818152505085816001600a8110610e4257610e41612a2a565b5b60200201818152505087879050816002600a8110610e6357610e62612a2a565b5b6020020181815250506004888890501015610e7f576000610e96565b878790610e8c9190612a71565b60e01c63ffffffff165b816003600a8110610eaa57610ea9612a2a565b5b60200201818152505060003373ffffffffffffffffffffffffffffffffffffffff163b11610ed9576000610edc565b60015b60ff16816004600a8110610ef357610ef2612a2a565b5b6020020181815250506000600760003373ffffffffffffffffffffffffffffffffffffffff1673ffffffffffffffffffffffffffffffffffffffff1681526020019081526020016000205414610f9357600760003373ffffffffffffffffffffffffffffffffffffffff1673ffffffffffffffffffffffffffffffffffffffff1681526020019081526020016000205443610f8e9190612ad0565b610f96565b60005b816005600a8110610faa57610fa9612a2a565b5b602002018181525050600860003373ffffffffffffffffffffffffffffffffffffffff1673ffffffffffffffffffffffffffffffffffffffff168152602001908152602001600020600043815260200190815260200160002054816006600a811061101857611017612a2a565b5b602002018181525050600960003373ffffffffffffffffffffffffffffffffffffffff1673ffffffffffffffffffffffffffffffffffffffff168152602001908152602001600020600043815260200190815260200160002054816007600a811061108657611085612a2a565b5b6020020181815250506000851161109e5760006110b8565b846103e8876110ad9190612b04565b6110b79190612b75565b5b816008600a81106110cc576110cb612a2a565b5b6020020181815250507f0000000000000000000000000000000000000000000000000000000000000000436111019190612ad0565b816009600a811061111557611114612a2a565b5b6020020181815250506000600760003373ffffffffffffffffffffffffffffffffffffffff1673ffffffffffffffffffffffffffffffffffffffff16815260200190815260200160002054036111aa5743600760003373ffffffffffffffffffffffffffffffffffffffff1673ffffffffffffffffffffffffffffffffffffffff168152602001908152602001600020819055505b600860003373ffffffffffffffffffffffffffffffffffffffff1673ffffffffffffffffffffffffffffffffffffffff1681526020019081526020016000206000438152602001908152602001600020600081548092919061120b906128a7565b919050555085600960003373ffffffffffffffffffffffffffffffffffffffff1673ffffffffffffffffffffffffffffffffffffffff168152602001908152602001600020600043815260200190815260200160002060008282546112709190612ba6565b9250508190555060008073ffffffffffffffffffffffffffffffffffffffff1660018054906101000a900473ffffffffffffffffffffffffffffffffffffffff1673ffffffffffffffffffffffffffffffffffffffff161461141d5760008060018054906101000a900473ffffffffffffffffffffffffffffffffffffffff1673ffffffffffffffffffffffffffffffffffffffff16846040516020016113179190612c76565b6040516020818303038152906040526040516113339190612d03565b600060405180830381855afa9150503d806000811461136e576040519150601f19603f3d011682016040523d82523d6000602084013e611373565b606091505b509150915081801561138757506003815110155b1561140057806000815181106113a05761139f612a2a565b5b602001015160f81c60f81b60f81c9550806001815181106113c4576113c3612a2a565b5b602001015160f81c60f81b60f81c9450806002815181106113e8576113e7612a2a565b5b602001015160f81c60f81b60f81c60ff169250611416565b61140984611d87565b8095508197508298505050505b5050611433565b61142682611d87565b8093508195508296505050505b60026000815480929190611446906128a7565b9190505550600160159054906101000a900460ff1660ff168460ff1610945084611598576003600081548092919061147d906128a7565b9190505550600a6000815480929190611495906128a7565b91905055503373ffffffffffffffffffffffffffffffffffffffff167fa7294a043fb42f56dfcc6a7ea6cea67839be9b3950bb784e60d1377b860588d582866040516114e2929190612d1a565b60405180910390a23373ffffffffffffffffffffffffffffffffffffffff167faac79cc982c643ee6435f139df32ff2473edeb42053642fe708c33236c1143d060405161152e90612db5565b60405180910390a26003600a541061159757611548611ce4565b3373ffffffffffffffffffffffffffffffffffffffff167f2d408fc0a988b72d61b26cb422fb9f672b79b538a90fae7c59cb42ba4945652a4260405161158e919061237d565b60405180910390a25b5b3273ffffffffffffffffffffffffffffffffffffffff163373ffffffffffffffffffffffffffffffffffffffff167f03a86da51b4cde030b1f9f7f609647fa3a96ac1584975bd8258e178296f4c4e286866040516115f7929190612dd5565b60405180910390a36000334360025460405160200161161893929190612e67565b6040516020818303038152906040528051906020012090506040518060c001604052808660ff1681526020018560ff1681526020018363ffffffff1681526020013373ffffffffffffffffffffffffffffffffffffffff168152602001428152602001871515158152506005600083815260200190815260200160002060008201518160000160006101000a81548160ff021916908360ff16021790555060208201518160000160016101000a81548160ff021916908360ff16021790555060408201518160000160026101000a81548163ffffffff021916908363ffffffff16021790555060608201518160000160066101000a81548173ffffffffffffffffffffffffffffffffffffffff021916908373ffffffffffffffffffffffffffffffffffffffff1602179055506080820151816001015560a08201518160020160006101000a81548160ff0219169083151502179055509050505050505b9450945094915050565b60056020528060005260406000206000915090508060000160009054906101000a900460ff16908060000160019054906101000a900460ff16908060000160029054906101000a900463ffffffff16908060000160069054906101000a900473ffffffffffffffffffffffffffffffffffffffff16908060010154908060020160009054906101000a900460ff16905086565b6000801b61182081611a82565b816001806101000a81548173ffffffffffffffffffffffffffffffffffffffff021916908373ffffffffffffffffffffffffffffffffffffffff1602179055505050565b600080600084815260200190815260200160002060000160008373ffffffffffffffffffffffffffffffffffffffff1673ffffffffffffffffffffffffffffffffffffffff16815260200190815260200160002060009054906101000a900460ff16905092915050565b60018054906101000a900473ffffffffffffffffffffffffffffffffffffffff1681565b6000801b81565b7f000000000000000000000000000000000000000000000000000000000000000081565b600080600061192b84611d87565b9250925092509193909250565b60025481565b600080600254600354915091509091565b61195882610859565b61196181611a82565b61196b8383611b8f565b50505050565b600a5481565b60076020528060005260406000206000915090505481565b6000801b61199c81611a82565b60018260ff16101580156119b4575060028260ff1611155b6119f3576040517f08c379a00000000000000000000000000000000000000000000000000000000081526004016119ea90612ef0565b60405180910390fd5b81600160156101000a81548160ff021916908360ff1602179055505050565b60035481565b60007f01ffc9a7000000000000000000000000000000000000000000000000000000007bffffffffffffffffffffffffffffffffffffffffffffffffffffffff1916827bffffffffffffffffffffffffffffffffffffffffffffffffffffffff1916149050919050565b611a9381611a8e611b87565b611e9b565b50565b6000611aa28383611864565b611b7c57600160008085815260200190815260200160002060000160008473ffffffffffffffffffffffffffffffffffffffff1673ffffffffffffffffffffffffffffffffffffffff16815260200190815260200160002060006101000a81548160ff021916908315150217905550611b19611b87565b73ffffffffffffffffffffffffffffffffffffffff168273ffffffffffffffffffffffffffffffffffffffff16847f2f8788117e7eff1d82e926ec794901d17c78024a50270940304540a733656f0d60405160405180910390a460019050611b81565b600090505b92915050565b600033905090565b6000611b9b8383611864565b15611c7657600080600085815260200190815260200160002060000160008473ffffffffffffffffffffffffffffffffffffffff1673ffffffffffffffffffffffffffffffffffffffff16815260200190815260200160002060006101000a81548160ff021916908315150217905550611c13611b87565b73ffffffffffffffffffffffffffffffffffffffff168273ffffffffffffffffffffffffffffffffffffffff16847ff6391f5c32d9c69d2a47ea670b442974b53935d1edc7fd64eb21e047a839171b60405160405180910390a460019050611c7b565b600090505b92915050565b611c89611eec565b6000600160006101000a81548160ff0219169083151502179055507f5db9ee0a495bf2e6ff9c91a7834c1ba4fdd244a5e8aa4e537bd38aeae4b073aa611ccd611b87565b604051611cda9190612527565b60405180910390a1565b611cec611d46565b60018060006101000a81548160ff0219169083151502179055507f62e78cea01bee320cd4e420270b5ea74000d11b0c9f74754ebdbfc544b05a258611d2f611b87565b604051611d3c9190612527565b60405180910390a1565b611d4e610bed565b15611d85576040517fd93c066500000000000000000000000000000000000000000000000000000000815260040160405180910390fd5b565b600080600080846004600a8110611da157611da0612a2a565b5b60200201511115611e54576000846005600a8110611dc257611dc1612a2a565b5b602002015103611e105761012c846008600a8110611de357611de2612a2a565b5b60200201511115611dff576002605b6009925092509250611e94565b600160376007925092509250611e94565b6102bc846008600a8110611e2757611e26612a2a565b5b60200201511115611e43576001603c6008925092509250611e94565b60006055600b925092509250611e94565b610384846008600a8110611e6b57611e6a612a2a565b5b60200201511115611e87576001602d600a925092509250611e94565b6000605f600b9250925092505b9193909250565b611ea58282611864565b611ee85780826040517fe2517d3f000000000000000000000000000000000000000000000000000000008152600401611edf929190612f10565b60405180910390fd5b5050565b611ef4610bed565b611f2a576040517f8dfc202b00000000000000000000000000000000000000000000000000000000815260040160405180910390fd5b565b6040518060c00160405280600060ff168152602001600060ff168152602001600063ffffffff168152602001600073ffffffffffffffffffffffffffffffffffffffff168152602001600081526020016000151581525090565b604051806101400160405280600a90602082028036833780820191505090505090565b6000604051905090565b600080fd5b600080fd5b60007fffffffff0000000000000000000000000000000000000000000000000000000082169050919050565b611ff281611fbd565b8114611ffd57600080fd5b50565b60008135905061200f81611fe9565b92915050565b60006020828403121561202b5761202a611fb3565b5b600061203984828501612000565b91505092915050565b60008115159050919050565b61205781612042565b82525050565b6000602082019050612072600083018461204e565b92915050565b6000819050919050565b61208b81612078565b811461209657600080fd5b50565b6000813590506120a881612082565b92915050565b6000602082840312156120c4576120c3611fb3565b5b60006120d284828501612099565b91505092915050565b600060ff82169050919050565b6120f1816120db565b82525050565b600063ffffffff82169050919050565b612110816120f7565b82525050565b600073ffffffffffffffffffffffffffffffffffffffff82169050919050565b600061214182612116565b9050919050565b61215181612136565b82525050565b6000819050919050565b61216a81612157565b82525050565b61217981612042565b82525050565b60c08201600082015161219560008501826120e8565b5060208201516121a860208501826120e8565b5060408201516121bb6040850182612107565b5060608201516121ce6060850182612148565b5060808201516121e16080850182612161565b5060a08201516121f460a0850182612170565b50505050565b600060c08201905061220f600083018461217f565b92915050565b61221e816120db565b82525050565b60006020820190506122396000830184612215565b92915050565b61224881612078565b82525050565b6000602082019050612263600083018461223f565b92915050565b61227281612136565b811461227d57600080fd5b50565b60008135905061228f81612269565b92915050565b6000602082840312156122ab576122aa611fb3565b5b60006122b984828501612280565b91505092915050565b600080604083850312156122d9576122d8611fb3565b5b60006122e785828601612099565b92505060206122f885828601612280565b9150509250929050565b61230b81612157565b811461231657600080fd5b50565b60008135905061232881612302565b92915050565b6000806040838503121561234557612344611fb3565b5b600061235385828601612280565b925050602061236485828601612319565b9150509250929050565b61237781612157565b82525050565b6000602082019050612392600083018461236e565b92915050565b600080fd5b600080fd5b600080fd5b60008083601f8401126123bd576123bc612398565b5b8235905067ffffffffffffffff8111156123da576123d961239d565b5b6020830191508360018202830111156123f6576123f56123a2565b5b9250929050565b6000806000806060858703121561241757612416611fb3565b5b600085013567ffffffffffffffff81111561243557612434611fb8565b5b612441878288016123a7565b9450945050602061245487828801612319565b925050604061246587828801612319565b91505092959194509250565b6000606082019050612486600083018661204e565b6124936020830185612215565b6124a06040830184612215565b949350505050565b6124b1816120f7565b82525050565b6124c081612136565b82525050565b600060c0820190506124db6000830189612215565b6124e86020830188612215565b6124f560408301876124a8565b61250260608301866124b7565b61250f608083018561236e565b61251c60a083018461204e565b979650505050505050565b600060208201905061253c60008301846124b7565b92915050565b6000601f19601f8301169050919050565b7f4e487b7100000000000000000000000000000000000000000000000000000000600052604160045260246000fd5b61258b82612542565b810181811067ffffffffffffffff821117156125aa576125a9612553565b5b80604052505050565b60006125bd611fa9565b90506125c98282612582565b919050565b600067ffffffffffffffff8211156125e9576125e8612553565b5b602082029050919050565b6000612607612602846125ce565b6125b3565b90508060208402830185811115612621576126206123a2565b5b835b8181101561264a57806126368882612319565b845260208401935050602081019050612623565b5050509392505050565b600082601f83011261266957612668612398565b5b600a6126768482856125f4565b91505092915050565b6000610140828403121561269657612695611fb3565b5b60006126a484828501612654565b91505092915050565b60006060820190506126c26000830186612215565b6126cf6020830185612215565b6126dc60408301846124a8565b949350505050565b60006040820190506126f9600083018561236e565b612706602083018461236e565b9392505050565b612716816120db565b811461272157600080fd5b50565b6000813590506127338161270d565b92915050565b60006020828403121561274f5761274e611fb3565b5b600061275d84828501612724565b91505092915050565b600082825260208201905092915050565b7f477561726469616e50726f78793a206e6f206163746976652067756172640000600082015250565b60006127ad601e83612766565b91506127b882612777565b602082019050919050565b600060208201905081810360008301526127dc816127a0565b9050919050565b7f4e487b7100000000000000000000000000000000000000000000000000000000600052601160045260246000fd5b600061281d82612157565b9150600082036128305761282f6127e3565b5b600182039050919050565b7f477561726469616e50726f78793a207a65726f20616464726573730000000000600082015250565b6000612871601b83612766565b915061287c8261283b565b602082019050919050565b600060208201905081810360008301526128a081612864565b9050919050565b60006128b282612157565b91507fffffffffffffffffffffffffffffffffffffffffffffffffffffffffffffffff82036128e4576128e36127e3565b5b600182019050919050565b6000819050919050565b6000819050919050565b600061291e612919612914846128ef565b6128f9565b6120f7565b9050919050565b61292e81612903565b82525050565b6000819050919050565b600061295961295461294f84612934565b6128f9565b6120db565b9050919050565b6129698161293e565b82525050565b60006040820190506129846000830185612925565b6129916020830184612960565b9392505050565b7f506f6c6b6153656e74696e656c3a205245454e5452414e43595f424c4f434b4560008201527f4400000000000000000000000000000000000000000000000000000000000000602082015250565b60006129f4602183612766565b91506129ff82612998565b604082019050919050565b60006020820190508181036000830152612a23816129e7565b9050919050565b7f4e487b7100000000000000000000000000000000000000000000000000000000600052603260045260246000fd5b600082905092915050565b600082821b905092915050565b6000612a7d8383612a59565b82612a888135611fbd565b92506004821015612ac857612ac37fffffffff0000000000000000000000000000000000000000000000000000000083600403600802612a64565b831692505b505092915050565b6000612adb82612157565b9150612ae683612157565b9250828203905081811115612afe57612afd6127e3565b5b92915050565b6000612b0f82612157565b9150612b1a83612157565b9250828202612b2881612157565b91508282048414831517612b3f57612b3e6127e3565b5b5092915050565b7f4e487b7100000000000000000000000000000000000000000000000000000000600052601260045260246000fd5b6000612b8082612157565b9150612b8b83612157565b925082612b9b57612b9a612b46565b5b828204905092915050565b6000612bb182612157565b9150612bbc83612157565b9250828201905080821115612bd457612bd36127e3565b5b92915050565b6000600a9050919050565b600081905092915050565b6000819050919050565b6000612c068383612161565b60208301905092915050565b6000602082019050919050565b612c2881612bda565b612c328184612be5565b9250612c3d82612bf0565b8060005b83811015612c6e578151612c558782612bfa565b9650612c6083612c12565b925050600181019050612c41565b505050505050565b600061014082019050612c8c6000830184612c1f565b92915050565b600081519050919050565b600081905092915050565b60005b83811015612cc6578082015181840152602081019050612cab565b60008484015250505050565b6000612cdd82612c92565b612ce78185612c9d565b9350612cf7818560208601612ca8565b80840191505092915050565b6000612d0f8284612cd2565b915081905092915050565b6000604082019050612d2f60008301856124a8565b612d3c6020830184612215565b9392505050565b7f506f6c6b6153656e74696e656c3a20435249544943414c5f5448524541545f4260008201527f4c4f434b45440000000000000000000000000000000000000000000000000000602082015250565b6000612d9f602683612766565b9150612daa82612d43565b604082019050919050565b60006020820190508181036000830152612dce81612d92565b9050919050565b6000604082019050612dea6000830185612215565b612df76020830184612215565b9392505050565b60008160601b9050919050565b6000612e1682612dfe565b9050919050565b6000612e2882612e0b565b9050919050565b612e40612e3b82612136565b612e1d565b82525050565b6000819050919050565b612e61612e5c82612157565b612e46565b82525050565b6000612e738286612e2f565b601482019150612e838285612e50565b602082019150612e938284612e50565b602082019150819050949350505050565b7f477561726469616e50726f78793a20696e76616c6964207468726573686f6c64600082015250565b6000612eda602083612766565b9150612ee582612ea4565b602082019050919050565b60006020820190508181036000830152612f0981612ecd565b9050919050565b6000604082019050612f2560008301856124b7565b612f32602083018461223f565b939250505056fea2646970667358221220de88ee366711e5020668972b6711b7550edb52f44769c7145058c3a35844357064736f6c63430008180033",
          "opcodes": "PUSH1 0xA0 PUSH1 0x40 MSTORE CALLVALUE DUP1 ISZERO PUSH3 0x11 JUMPI PUSH1 0x0 DUP1 REVERT JUMPDEST POP PUSH1 0x40 MLOAD PUSH3 0x328E CODESIZE SUB DUP1 PUSH3 0x328E DUP4 CODECOPY DUP2 DUP2 ADD PUSH1 0x40 MSTORE DUP2 ADD SWAP1 PUSH3 0x37 SWAP2 SWAP1 PUSH3 0x2CA JUMP JUMPDEST PUSH3 0x4C PUSH1 0x0 DUP1 SHL CALLER PUSH3 0xEB PUSH1 0x20 SHL PUSH1 0x20 SHR JUMP JUMPDEST POP PUSH3 0x7F PUSH32 0x55435DD261A4B9B3364963F7738A7A662AD9C84396D64BE3365284BB7F0A5041 CALLER PUSH3 0xEB PUSH1 0x20 SHL PUSH1 0x20 SHR JUMP JUMPDEST POP DUP1 PUSH1 0x1 DUP1 PUSH2 0x100 EXP DUP2 SLOAD DUP2 PUSH20 0xFFFFFFFFFFFFFFFFFFFFFFFFFFFFFFFFFFFFFFFF MUL NOT AND SWAP1 DUP4 PUSH20 0xFFFFFFFFFFFFFFFFFFFFFFFFFFFFFFFFFFFFFFFF AND MUL OR SWAP1 SSTORE POP PUSH1 0x2 PUSH1 0x1 PUSH1 0x15 PUSH2 0x100 EXP DUP2 SLOAD DUP2 PUSH1 0xFF MUL NOT AND SWAP1 DUP4 PUSH1 0xFF AND MUL OR SWAP1 SSTORE POP NUMBER PUSH1 0x80 DUP2 DUP2 MSTORE POP POP POP PUSH3 0x2FC JUMP JUMPDEST PUSH1 0x0 PUSH3 0xFF DUP4 DUP4 PUSH3 0x1EE PUSH1 0x20 SHL PUSH1 0x20 SHR JUMP JUMPDEST PUSH3 0x1E3 JUMPI PUSH1 0x1 PUSH1 0x0 DUP1 DUP6 DUP2 MSTORE PUSH1 0x20 ADD SWAP1 DUP2 MSTORE PUSH1 0x20 ADD PUSH1 0x0 KECCAK256 PUSH1 0x0 ADD PUSH1 0x0 DUP5 PUSH20 0xFFFFFFFFFFFFFFFFFFFFFFFFFFFFFFFFFFFFFFFF AND PUSH20 0xFFFFFFFFFFFFFFFFFFFFFFFFFFFFFFFFFFFFFFFF AND DUP2 MSTORE PUSH1 0x20 ADD SWAP1 DUP2 MSTORE PUSH1 0x20 ADD PUSH1 0x0 KECCAK256 PUSH1 0x0 PUSH2 0x100 EXP DUP2 SLOAD DUP2 PUSH1 0xFF MUL NOT AND SWAP1 DUP4 ISZERO ISZERO MUL OR SWAP1 SSTORE POP PUSH3 0x17F PUSH3 0x258 PUSH1 0x20 SHL PUSH1 0x20 SHR JUMP JUMPDEST PUSH20 0xFFFFFFFFFFFFFFFFFFFFFFFFFFFFFFFFFFFFFFFF AND DUP3 PUSH20 0xFFFFFFFFFFFFFFFFFFFFFFFFFFFFFFFFFFFFFFFF AND DUP5 PUSH32 0x2F8788117E7EFF1D82E926EC794901D17C78024A50270940304540A733656F0D PUSH1 0x40 MLOAD PUSH1 0x40 MLOAD DUP1 SWAP2 SUB SWAP1 LOG4 PUSH1 0x1 SWAP1 POP PUSH3 0x1E8 JUMP JUMPDEST PUSH1 0x0 SWAP1 POP JUMPDEST SWAP3 SWAP2 POP POP JUMP JUMPDEST PUSH1 0x0 DUP1 PUSH1 0x0 DUP5 DUP2 MSTORE PUSH1 0x20 ADD SWAP1 DUP2 MSTORE PUSH1 0x20 ADD PUSH1 0x0 KECCAK256 PUSH1 0x0 ADD PUSH1 0x0 DUP4 PUSH20 0xFFFFFFFFFFFFFFFFFFFFFFFFFFFFFFFFFFFFFFFF AND PUSH20 0xFFFFFFFFFFFFFFFFFFFFFFFFFFFFFFFFFFFFFFFF AND DUP2 MSTORE PUSH1 0x20 ADD SWAP1 DUP2 MSTORE PUSH1 0x20 ADD PUSH1 0x0 KECCAK256 PUSH1 0x0 SWAP1 SLOAD SWAP1 PUSH2 0x100 EXP SWAP1 DIV PUSH1 0xFF AND SWAP1 POP SWAP3 SWAP2 POP POP JUMP JUMPDEST PUSH1 0x0 CALLER SWAP1 POP SWAP1 JUMP JUMPDEST PUSH1 0x0 DUP1 REVERT JUMPDEST PUSH1 0x0 PUSH20 0xFFFFFFFFFFFFFFFFFFFFFFFFFFFFFFFFFFFFFFFF DUP3 AND SWAP1 POP SWAP2 SWAP1 POP JUMP JUMPDEST PUSH1 0x0 PUSH3 0x292 DUP3 PUSH3 0x265 JUMP JUMPDEST SWAP1 POP SWAP2 SWAP1 POP JUMP JUMPDEST PUSH3 0x2A4 DUP2 PUSH3 0x285 JUMP JUMPDEST DUP2 EQ PUSH3 0x2B0 JUMPI PUSH1 0x0 DUP1 REVERT JUMPDEST POP JUMP JUMPDEST PUSH1 0x0 DUP2 MLOAD SWAP1 POP PUSH3 0x2C4 DUP2 PUSH3 0x299 JUMP JUMPDEST SWAP3 SWAP2 POP POP JUMP JUMPDEST PUSH1 0x0 PUSH1 0x20 DUP3 DUP5 SUB SLT ISZERO PUSH3 0x2E3 JUMPI PUSH3 0x2E2 PUSH3 0x260 JUMP JUMPDEST JUMPDEST PUSH1 0x0 PUSH3 0x2F3 DUP5 DUP3 DUP6 ADD PUSH3 0x2B3 JUMP JUMPDEST SWAP2 POP POP SWAP3 SWAP2 POP POP JUMP JUMPDEST PUSH1 0x80 MLOAD PUSH2 0x2F6F PUSH3 0x31F PUSH1 0x0 CODECOPY PUSH1 0x0 DUP2 DUP2 PUSH2 0x10D7 ADD MSTORE PUSH2 0x18FB ADD MSTORE PUSH2 0x2F6F PUSH1 0x0 RETURN INVALID PUSH1 0x80 PUSH1 0x40 MSTORE CALLVALUE DUP1 ISZERO PUSH2 0x10 JUMPI PUSH1 0x0 DUP1 REVERT JUMPDEST POP PUSH1 0x4 CALLDATASIZE LT PUSH2 0x1DA JUMPI PUSH1 0x0 CALLDATALOAD PUSH1 0xE0 SHR DUP1 PUSH4 0x80A16431 GT PUSH2 0x104 JUMPI DUP1 PUSH4 0xB104520B GT PUSH2 0xA2 JUMPI DUP1 PUSH4 0xD7067DF7 GT PUSH2 0x71 JUMPI DUP1 PUSH4 0xD7067DF7 EQ PUSH2 0x563 JUMPI DUP1 PUSH4 0xE326AC43 EQ PUSH2 0x581 JUMPI DUP1 PUSH4 0xE5A98603 EQ PUSH2 0x5B1 JUMPI DUP1 PUSH4 0xF11929D0 EQ PUSH2 0x5CD JUMPI PUSH2 0x1DA JUMP JUMPDEST DUP1 PUSH4 0xB104520B EQ PUSH2 0x4D8 JUMPI DUP1 PUSH4 0xB603BE00 EQ PUSH2 0x50A JUMPI DUP1 PUSH4 0xC59D4847 EQ PUSH2 0x528 JUMPI DUP1 PUSH4 0xD547741F EQ PUSH2 0x547 JUMPI PUSH2 0x1DA JUMP JUMPDEST DUP1 PUSH4 0x91D14854 GT PUSH2 0xDE JUMPI DUP1 PUSH4 0x91D14854 EQ PUSH2 0x44E JUMPI DUP1 PUSH4 0x9594E37B EQ PUSH2 0x47E JUMPI DUP1 PUSH4 0xA217FDDF EQ PUSH2 0x49C JUMPI DUP1 PUSH4 0xA3EC191A EQ PUSH2 0x4BA JUMPI PUSH2 0x1DA JUMP JUMPDEST DUP1 PUSH4 0x80A16431 EQ PUSH2 0x3CB JUMPI DUP1 PUSH4 0x87B94D7F EQ PUSH2 0x3FD JUMPI DUP1 PUSH4 0x90265E24 EQ PUSH2 0x432 JUMPI PUSH2 0x1DA JUMP JUMPDEST DUP1 PUSH4 0x2F2FF15D GT PUSH2 0x17C JUMPI DUP1 PUSH4 0x4A4E3BD5 GT PUSH2 0x14B JUMPI DUP1 PUSH4 0x4A4E3BD5 EQ PUSH2 0x369 JUMPI DUP1 PUSH4 0x4F95CEED EQ PUSH2 0x373 JUMPI DUP1 PUSH4 0x51858E27 EQ PUSH2 0x3A3 JUMPI DUP1 PUSH4 0x5C975ABB EQ PUSH2 0x3AD JUMPI PUSH2 0x1DA JUMP JUMPDEST DUP1 PUSH4 0x2F2FF15D EQ PUSH2 0x2D1 JUMPI DUP1 PUSH4 0x35AA647C EQ PUSH2 0x2ED JUMPI DUP1 PUSH4 0x36568ABE EQ PUSH2 0x31D JUMPI DUP1 PUSH4 0x3823BE00 EQ PUSH2 0x339 JUMPI PUSH2 0x1DA JUMP JUMPDEST DUP1 PUSH4 0x1C80291E GT PUSH2 0x1B8 JUMPI DUP1 PUSH4 0x1C80291E EQ PUSH2 0x249 JUMPI DUP1 PUSH4 0x248A9CA3 EQ PUSH2 0x267 JUMPI DUP1 PUSH4 0x24EA54F4 EQ PUSH2 0x297 JUMPI DUP1 PUSH4 0x260E40D2 EQ PUSH2 0x2B5 JUMPI PUSH2 0x1DA JUMP JUMPDEST DUP1 PUSH4 0x1FFC9A7 EQ PUSH2 0x1DF JUMPI DUP1 PUSH4 0x164459A3 EQ PUSH2 0x20F JUMPI DUP1 PUSH4 0x171C4F11 EQ PUSH2 0x219 JUMPI JUMPDEST PUSH1 0x0 DUP1 REVERT JUMPDEST PUSH2 0x1F9 PUSH1 0x4 DUP1 CALLDATASIZE SUB DUP2 ADD SWAP1 PUSH2 0x1F4 SWAP2 SWAP1 PUSH2 0x2015 JUMP JUMPDEST PUSH2 0x5EB JUMP JUMPDEST PUSH1 0x40 MLOAD PUSH2 0x206 SWAP2 SWAP1 PUSH2 0x205D JUMP JUMPDEST PUSH1 0x40 MLOAD DUP1 SWAP2 SUB SWAP1 RETURN JUMPDEST PUSH2 0x217 PUSH2 0x665 JUMP JUMPDEST STOP JUMPDEST PUSH2 0x233 PUSH1 0x4 DUP1 CALLDATASIZE SUB DUP2 ADD SWAP1 PUSH2 0x22E SWAP2 SWAP1 PUSH2 0x20AE JUMP JUMPDEST PUSH2 0x73E JUMP JUMPDEST PUSH1 0x40 MLOAD PUSH2 0x240 SWAP2 SWAP1 PUSH2 0x21FA JUMP JUMPDEST PUSH1 0x40 MLOAD DUP1 SWAP2 SUB SWAP1 RETURN JUMPDEST PUSH2 0x251 PUSH2 0x846 JUMP JUMPDEST PUSH1 0x40 MLOAD PUSH2 0x25E SWAP2 SWAP1 PUSH2 0x2224 JUMP JUMPDEST PUSH1 0x40 MLOAD DUP1 SWAP2 SUB SWAP1 RETURN JUMPDEST PUSH2 0x281 PUSH1 0x4 DUP1 CALLDATASIZE SUB DUP2 ADD SWAP1 PUSH2 0x27C SWAP2 SWAP1 PUSH2 0x20AE JUMP JUMPDEST PUSH2 0x859 JUMP JUMPDEST PUSH1 0x40 MLOAD PUSH2 0x28E SWAP2 SWAP1 PUSH2 0x224E JUMP JUMPDEST PUSH1 0x40 MLOAD DUP1 SWAP2 SUB SWAP1 RETURN JUMPDEST PUSH2 0x29F PUSH2 0x878 JUMP JUMPDEST PUSH1 0x40 MLOAD PUSH2 0x2AC SWAP2 SWAP1 PUSH2 0x224E JUMP JUMPDEST PUSH1 0x40 MLOAD DUP1 SWAP2 SUB SWAP1 RETURN JUMPDEST PUSH2 0x2CF PUSH1 0x4 DUP1 CALLDATASIZE SUB DUP2 ADD SWAP1 PUSH2 0x2CA SWAP2 SWAP1 PUSH2 0x2295 JUMP JUMPDEST PUSH2 0x89C JUMP JUMPDEST STOP JUMPDEST PUSH2 0x2EB PUSH1 0x4 DUP1 CALLDATASIZE SUB DUP2 ADD SWAP1 PUSH2 0x2E6 SWAP2 SWAP1 PUSH2 0x22C2 JUMP JUMPDEST PUSH2 0xA43 JUMP JUMPDEST STOP JUMPDEST PUSH2 0x307 PUSH1 0x4 DUP1 CALLDATASIZE SUB DUP2 ADD SWAP1 PUSH2 0x302 SWAP2 SWAP1 PUSH2 0x232E JUMP JUMPDEST PUSH2 0xA65 JUMP JUMPDEST PUSH1 0x40 MLOAD PUSH2 0x314 SWAP2 SWAP1 PUSH2 0x237D JUMP JUMPDEST PUSH1 0x40 MLOAD DUP1 SWAP2 SUB SWAP1 RETURN JUMPDEST PUSH2 0x337 PUSH1 0x4 DUP1 CALLDATASIZE SUB DUP2 ADD SWAP1 PUSH2 0x332 SWAP2 SWAP1 PUSH2 0x22C2 JUMP JUMPDEST PUSH2 0xA8A JUMP JUMPDEST STOP JUMPDEST PUSH2 0x353 PUSH1 0x4 DUP1 CALLDATASIZE SUB DUP2 ADD SWAP1 PUSH2 0x34E SWAP2 SWAP1 PUSH2 0x2295 JUMP JUMPDEST PUSH2 0xB05 JUMP JUMPDEST PUSH1 0x40 MLOAD PUSH2 0x360 SWAP2 SWAP1 PUSH2 0x205D JUMP JUMPDEST PUSH1 0x40 MLOAD DUP1 SWAP2 SUB SWAP1 RETURN JUMPDEST PUSH2 0x371 PUSH2 0xB25 JUMP JUMPDEST STOP JUMPDEST PUSH2 0x38D PUSH1 0x4 DUP1 CALLDATASIZE SUB DUP2 ADD SWAP1 PUSH2 0x388 SWAP2 SWAP1 PUSH2 0x232E JUMP JUMPDEST PUSH2 0xB45 JUMP JUMPDEST PUSH1 0x40 MLOAD PUSH2 0x39A SWAP2 SWAP1 PUSH2 0x237D JUMP JUMPDEST PUSH1 0x40 MLOAD DUP1 SWAP2 SUB SWAP1 RETURN JUMPDEST PUSH2 0x3AB PUSH2 0xB6A JUMP JUMPDEST STOP JUMPDEST PUSH2 0x3B5 PUSH2 0xBED JUMP JUMPDEST PUSH1 0x40 MLOAD PUSH2 0x3C2 SWAP2 SWAP1 PUSH2 0x205D JUMP JUMPDEST PUSH1 0x40 MLOAD DUP1 SWAP2 SUB SWAP1 RETURN JUMPDEST PUSH2 0x3E5 PUSH1 0x4 DUP1 CALLDATASIZE SUB DUP2 ADD SWAP1 PUSH2 0x3E0 SWAP2 SWAP1 PUSH2 0x23FD JUMP JUMPDEST PUSH2 0xC04 JUMP JUMPDEST PUSH1 0x40 MLOAD PUSH2 0x3F4 SWAP4 SWAP3 SWAP2 SWAP1 PUSH2 0x2471 JUMP JUMPDEST PUSH1 0x40 MLOAD DUP1 SWAP2 SUB SWAP1 RETURN JUMPDEST PUSH2 0x417 PUSH1 0x4 DUP1 CALLDATASIZE SUB DUP2 ADD SWAP1 PUSH2 0x412 SWAP2 SWAP1 PUSH2 0x20AE JUMP JUMPDEST PUSH2 0x1780 JUMP JUMPDEST PUSH1 0x40 MLOAD PUSH2 0x429 SWAP7 SWAP6 SWAP5 SWAP4 SWAP3 SWAP2 SWAP1 PUSH2 0x24C6 JUMP JUMPDEST PUSH1 0x40 MLOAD DUP1 SWAP2 SUB SWAP1 RETURN JUMPDEST PUSH2 0x44C PUSH1 0x4 DUP1 CALLDATASIZE SUB DUP2 ADD SWAP1 PUSH2 0x447 SWAP2 SWAP1 PUSH2 0x2295 JUMP JUMPDEST PUSH2 0x1813 JUMP JUMPDEST STOP JUMPDEST PUSH2 0x468 PUSH1 0x4 DUP1 CALLDATASIZE SUB DUP2 ADD SWAP1 PUSH2 0x463 SWAP2 SWAP1 PUSH2 0x22C2 JUMP JUMPDEST PUSH2 0x1864 JUMP JUMPDEST PUSH1 0x40 MLOAD PUSH2 0x475 SWAP2 SWAP1 PUSH2 0x205D JUMP JUMPDEST PUSH1 0x40 MLOAD DUP1 SWAP2 SUB SWAP1 RETURN JUMPDEST PUSH2 0x486 PUSH2 0x18CE JUMP JUMPDEST PUSH1 0x40 MLOAD PUSH2 0x493 SWAP2 SWAP1 PUSH2 0x2527 JUMP JUMPDEST PUSH1 0x40 MLOAD DUP1 SWAP2 SUB SWAP1 RETURN JUMPDEST PUSH2 0x4A4 PUSH2 0x18F2 JUMP JUMPDEST PUSH1 0x40 MLOAD PUSH2 0x4B1 SWAP2 SWAP1 PUSH2 0x224E JUMP JUMPDEST PUSH1 0x40 MLOAD DUP1 SWAP2 SUB SWAP1 RETURN JUMPDEST PUSH2 0x4C2 PUSH2 0x18F9 JUMP JUMPDEST PUSH1 0x40 MLOAD PUSH2 0x4CF SWAP2 SWAP1 PUSH2 0x237D JUMP JUMPDEST PUSH1 0x40 MLOAD DUP1 SWAP2 SUB SWAP1 RETURN JUMPDEST PUSH2 0x4F2 PUSH1 0x4 DUP1 CALLDATASIZE SUB DUP2 ADD SWAP1 PUSH2 0x4ED SWAP2 SWAP1 PUSH2 0x267F JUMP JUMPDEST PUSH2 0x191D JUMP JUMPDEST PUSH1 0x40 MLOAD PUSH2 0x501 SWAP4 SWAP3 SWAP2 SWAP1 PUSH2 0x26AD JUMP JUMPDEST PUSH1 0x40 MLOAD DUP1 SWAP2 SUB SWAP1 RETURN JUMPDEST PUSH2 0x512 PUSH2 0x1938 JUMP JUMPDEST PUSH1 0x40 MLOAD PUSH2 0x51F SWAP2 SWAP1 PUSH2 0x237D JUMP JUMPDEST PUSH1 0x40 MLOAD DUP1 SWAP2 SUB SWAP1 RETURN JUMPDEST PUSH2 0x530 PUSH2 0x193E JUMP JUMPDEST PUSH1 0x40 MLOAD PUSH2 0x53E SWAP3 SWAP2 SWAP1 PUSH2 0x26E4 JUMP JUMPDEST PUSH1 0x40 MLOAD DUP1 SWAP2 SUB SWAP1 RETURN JUMPDEST PUSH2 0x561 PUSH1 0x4 DUP1 CALLDATASIZE SUB DUP2 ADD SWAP1 PUSH2 0x55C SWAP2 SWAP1 PUSH2 0x22C2 JUMP JUMPDEST PUSH2 0x194F JUMP JUMPDEST STOP JUMPDEST PUSH2 0x56B PUSH2 0x1971 JUMP JUMPDEST PUSH1 0x40 MLOAD PUSH2 0x578 SWAP2 SWAP1 PUSH2 0x237D JUMP JUMPDEST PUSH1 0x40 MLOAD DUP1 SWAP2 SUB SWAP1 RETURN JUMPDEST PUSH2 0x59B PUSH1 0x4 DUP1 CALLDATASIZE SUB DUP2 ADD SWAP1 PUSH2 0x596 SWAP2 SWAP1 PUSH2 0x2295 JUMP JUMPDEST PUSH2 0x1977 JUMP JUMPDEST PUSH1 0x40 MLOAD PUSH2 0x5A8 SWAP2 SWAP1 PUSH2 0x237D JUMP JUMPDEST PUSH1 0x40 MLOAD DUP1 SWAP2 SUB SWAP1 RETURN JUMPDEST PUSH2 0x5CB PUSH1 0x4 DUP1 CALLDATASIZE SUB DUP2 ADD SWAP1 PUSH2 0x5C6 SWAP2 SWAP1 PUSH2 0x2739 JUMP JUMPDEST PUSH2 0x198F JUMP JUMPDEST STOP JUMPDEST PUSH2 0x5D5 PUSH2 0x1A12 JUMP JUMPDEST PUSH1 0x40 MLOAD PUSH2 0x5E2 SWAP2 SWAP1 PUSH2 0x237D JUMP JUMPDEST PUSH1 0x40 MLOAD DUP1 SWAP2 SUB SWAP1 RETURN JUMPDEST PUSH1 0x0 PUSH32 0x7965DB0B00000000000000000000000000000000000000000000000000000000 PUSH28 0xFFFFFFFFFFFFFFFFFFFFFFFFFFFFFFFFFFFFFFFFFFFFFFFFFFFFFFFF NOT AND DUP3 PUSH28 0xFFFFFFFFFFFFFFFFFFFFFFFFFFFFFFFFFFFFFFFFFFFFFFFFFFFFFFFF NOT AND EQ DUP1 PUSH2 0x65E JUMPI POP PUSH2 0x65D DUP3 PUSH2 0x1A18 JUMP JUMPDEST JUMPDEST SWAP1 POP SWAP2 SWAP1 POP JUMP JUMPDEST PUSH1 0x0 PUSH1 0x6 PUSH1 0x0 CALLER PUSH20 0xFFFFFFFFFFFFFFFFFFFFFFFFFFFFFFFFFFFFFFFF AND PUSH20 0xFFFFFFFFFFFFFFFFFFFFFFFFFFFFFFFFFFFFFFFF AND DUP2 MSTORE PUSH1 0x20 ADD SWAP1 DUP2 MSTORE PUSH1 0x20 ADD PUSH1 0x0 KECCAK256 SLOAD GT PUSH2 0x6E7 JUMPI PUSH1 0x40 MLOAD PUSH32 0x8C379A000000000000000000000000000000000000000000000000000000000 DUP2 MSTORE PUSH1 0x4 ADD PUSH2 0x6DE SWAP1 PUSH2 0x27C3 JUMP JUMPDEST PUSH1 0x40 MLOAD DUP1 SWAP2 SUB SWAP1 REVERT JUMPDEST PUSH1 0x6 PUSH1 0x0 CALLER PUSH20 0xFFFFFFFFFFFFFFFFFFFFFFFFFFFFFFFFFFFFFFFF AND PUSH20 0xFFFFFFFFFFFFFFFFFFFFFFFFFFFFFFFFFFFFFFFF AND DUP2 MSTORE PUSH1 0x20 ADD SWAP1 DUP2 MSTORE PUSH1 0x20 ADD PUSH1 0x0 KECCAK256 PUSH1 0x0 DUP2 SLOAD DUP1 SWAP3 SWAP2 SWAP1 PUSH2 0x737 SWAP1 PUSH2 0x2812 JUMP JUMPDEST SWAP2 SWAP1 POP SSTORE POP JUMP JUMPDEST PUSH2 0x746 PUSH2 0x1F2C JUMP JUMPDEST PUSH1 0x5 PUSH1 0x0 DUP4 DUP2 MSTORE PUSH1 0x20 ADD SWAP1 DUP2 MSTORE PUSH1 0x20 ADD PUSH1 0x0 KECCAK256 PUSH1 0x40 MLOAD DUP1 PUSH1 0xC0 ADD PUSH1 0x40 MSTORE SWAP1 DUP2 PUSH1 0x0 DUP3 ADD PUSH1 0x0 SWAP1 SLOAD SWAP1 PUSH2 0x100 EXP SWAP1 DIV PUSH1 0xFF AND PUSH1 0xFF AND PUSH1 0xFF AND DUP2 MSTORE PUSH1 0x20 ADD PUSH1 0x0 DUP3 ADD PUSH1 0x1 SWAP1 SLOAD SWAP1 PUSH2 0x100 EXP SWAP1 DIV PUSH1 0xFF AND PUSH1 0xFF AND PUSH1 0xFF AND DUP2 MSTORE PUSH1 0x20 ADD PUSH1 0x0 DUP3 ADD PUSH1 0x2 SWAP1 SLOAD SWAP1 PUSH2 0x100 EXP SWAP1 DIV PUSH4 0xFFFFFFFF AND PUSH4 0xFFFFFFFF AND PUSH4 0xFFFFFFFF AND DUP2 MSTORE PUSH1 0x20 ADD PUSH1 0x0 DUP3 ADD PUSH1 0x6 SWAP1 SLOAD SWAP1 PUSH2 0x100 EXP SWAP1 DIV PUSH20 0xFFFFFFFFFFFFFFFFFFFFFFFFFFFFFFFFFFFFFFFF AND PUSH20 0xFFFFFFFFFFFFFFFFFFFFFFFFFFFFFFFFFFFFFFFF AND PUSH20 0xFFFFFFFFFFFFFFFFFFFFFFFFFFFFFFFFFFFFFFFF AND DUP2 MSTORE PUSH1 0x20 ADD PUSH1 0x1 DUP3 ADD SLOAD DUP2 MSTORE PUSH1 0x20 ADD PUSH1 0x2 DUP3 ADD PUSH1 0x0 SWAP1 SLOAD SWAP1 PUSH2 0x100 EXP SWAP1 DIV PUSH1 0xFF AND ISZERO ISZERO ISZERO ISZERO DUP2 MSTORE POP POP SWAP1 POP SWAP2 SWAP1 POP JUMP JUMPDEST PUSH1 0x1 PUSH1 0x15 SWAP1 SLOAD SWAP1 PUSH2 0x100 EXP SWAP1 DIV PUSH1 0xFF AND DUP2 JUMP JUMPDEST PUSH1 0x0 DUP1 PUSH1 0x0 DUP4 DUP2 MSTORE PUSH1 0x20 ADD SWAP1 DUP2 MSTORE PUSH1 0x20 ADD PUSH1 0x0 KECCAK256 PUSH1 0x1 ADD SLOAD SWAP1 POP SWAP2 SWAP1 POP JUMP JUMPDEST PUSH32 0x55435DD261A4B9B3364963F7738A7A662AD9C84396D64BE3365284BB7F0A5041 DUP2 JUMP JUMPDEST PUSH1 0x0 DUP1 SHL PUSH2 0x8A9 DUP2 PUSH2 0x1A82 JUMP JUMPDEST PUSH1 0x0 PUSH20 0xFFFFFFFFFFFFFFFFFFFFFFFFFFFFFFFFFFFFFFFF AND DUP3 PUSH20 0xFFFFFFFFFFFFFFFFFFFFFFFFFFFFFFFFFFFFFFFF AND SUB PUSH2 0x918 JUMPI PUSH1 0x40 MLOAD PUSH32 0x8C379A000000000000000000000000000000000000000000000000000000000 DUP2 MSTORE PUSH1 0x4 ADD PUSH2 0x90F SWAP1 PUSH2 0x2887 JUMP JUMPDEST PUSH1 0x40 MLOAD DUP1 SWAP2 SUB SWAP1 REVERT JUMPDEST PUSH1 0x1 PUSH1 0x4 PUSH1 0x0 DUP5 PUSH20 0xFFFFFFFFFFFFFFFFFFFFFFFFFFFFFFFFFFFFFFFF AND PUSH20 0xFFFFFFFFFFFFFFFFFFFFFFFFFFFFFFFFFFFFFFFF AND DUP2 MSTORE PUSH1 0x20 ADD SWAP1 DUP2 MSTORE PUSH1 0x20 ADD PUSH1 0x0 KECCAK256 PUSH1 0x0 PUSH2 0x100 EXP DUP2 SLOAD DUP2 PUSH1 0xFF MUL NOT AND SWAP1 DUP4 ISZERO ISZERO MUL OR SWAP1 SSTORE POP PUSH1 0x0 PUSH1 0x7 PUSH1 0x0 DUP5 PUSH20 0xFFFFFFFFFFFFFFFFFFFFFFFFFFFFFFFFFFFFFFFF AND PUSH20 0xFFFFFFFFFFFFFFFFFFFFFFFFFFFFFFFFFFFFFFFF AND DUP2 MSTORE PUSH1 0x20 ADD SWAP1 DUP2 MSTORE PUSH1 0x20 ADD PUSH1 0x0 KECCAK256 SLOAD SUB PUSH2 0x9FC JUMPI NUMBER PUSH1 0x7 PUSH1 0x0 DUP5 PUSH20 0xFFFFFFFFFFFFFFFFFFFFFFFFFFFFFFFFFFFFFFFF AND PUSH20 0xFFFFFFFFFFFFFFFFFFFFFFFFFFFFFFFFFFFFFFFF AND DUP2 MSTORE PUSH1 0x20 ADD SWAP1 DUP2 MSTORE PUSH1 0x20 ADD PUSH1 0x0 KECCAK256 DUP2 SWAP1 SSTORE POP JUMPDEST DUP2 PUSH20 0xFFFFFFFFFFFFFFFFFFFFFFFFFFFFFFFFFFFFFFFF AND PUSH32 0x2AE7694F6D6D0E61A4594115ED648BDE2E30164506CE300C676AF9F1D6448DA0 PUSH1 0x40 MLOAD PUSH1 0x40 MLOAD DUP1 SWAP2 SUB SWAP1 LOG2 POP POP JUMP JUMPDEST PUSH2 0xA4C DUP3 PUSH2 0x859 JUMP JUMPDEST PUSH2 0xA55 DUP2 PUSH2 0x1A82 JUMP JUMPDEST PUSH2 0xA5F DUP4 DUP4 PUSH2 0x1A96 JUMP JUMPDEST POP POP POP POP JUMP JUMPDEST PUSH1 0x8 PUSH1 0x20 MSTORE DUP2 PUSH1 0x0 MSTORE PUSH1 0x40 PUSH1 0x0 KECCAK256 PUSH1 0x20 MSTORE DUP1 PUSH1 0x0 MSTORE PUSH1 0x40 PUSH1 0x0 KECCAK256 PUSH1 0x0 SWAP2 POP SWAP2 POP POP SLOAD DUP2 JUMP JUMPDEST PUSH2 0xA92 PUSH2 0x1B87 JUMP JUMPDEST PUSH20 0xFFFFFFFFFFFFFFFFFFFFFFFFFFFFFFFFFFFFFFFF AND DUP2 PUSH20 0xFFFFFFFFFFFFFFFFFFFFFFFFFFFFFFFFFFFFFFFF AND EQ PUSH2 0xAF6 JUMPI PUSH1 0x40 MLOAD PUSH32 0x6697B23200000000000000000000000000000000000000000000000000000000 DUP2 MSTORE PUSH1 0x4 ADD PUSH1 0x40 MLOAD DUP1 SWAP2 SUB SWAP1 REVERT JUMPDEST PUSH2 0xB00 DUP3 DUP3 PUSH2 0x1B8F JUMP JUMPDEST POP POP POP JUMP JUMPDEST PUSH1 0x4 PUSH1 0x20 MSTORE DUP1 PUSH1 0x0 MSTORE PUSH1 0x40 PUSH1 0x0 KECCAK256 PUSH1 0x0 SWAP2 POP SLOAD SWAP1 PUSH2 0x100 EXP SWAP1 DIV PUSH1 0xFF AND DUP2 JUMP JUMPDEST PUSH1 0x0 DUP1 SHL PUSH2 0xB32 DUP2 PUSH2 0x1A82 JUMP JUMPDEST PUSH2 0xB3A PUSH2 0x1C81 JUMP JUMPDEST PUSH1 0x0 PUSH1 0xA DUP2 SWAP1 SSTORE POP POP JUMP JUMPDEST PUSH1 0x9 PUSH1 0x20 MSTORE DUP2 PUSH1 0x0 MSTORE PUSH1 0x40 PUSH1 0x0 KECCAK256 PUSH1 0x20 MSTORE DUP1 PUSH1 0x0 MSTORE PUSH1 0x40 PUSH1 0x0 KECCAK256 PUSH1 0x0 SWAP2 POP SWAP2 POP POP SLOAD DUP2 JUMP JUMPDEST PUSH32 0x55435DD261A4B9B3364963F7738A7A662AD9C84396D64BE3365284BB7F0A5041 PUSH2 0xB94 DUP2 PUSH2 0x1A82 JUMP JUMPDEST PUSH2 0xB9C PUSH2 0x1CE4 JUMP JUMPDEST CALLER PUSH20 0xFFFFFFFFFFFFFFFFFFFFFFFFFFFFFFFFFFFFFFFF AND PUSH32 0x2D408FC0A988B72D61B26CB422FB9F672B79B538A90FAE7C59CB42BA4945652A TIMESTAMP PUSH1 0x40 MLOAD PUSH2 0xBE2 SWAP2 SWAP1 PUSH2 0x237D JUMP JUMPDEST PUSH1 0x40 MLOAD DUP1 SWAP2 SUB SWAP1 LOG2 POP JUMP JUMPDEST PUSH1 0x0 PUSH1 0x1 PUSH1 0x0 SWAP1 SLOAD SWAP1 PUSH2 0x100 EXP SWAP1 DIV PUSH1 0xFF AND SWAP1 POP SWAP1 JUMP JUMPDEST PUSH1 0x0 DUP1 PUSH1 0x0 PUSH2 0xC11 PUSH2 0x1D46 JUMP JUMPDEST PUSH1 0x0 PUSH1 0x6 PUSH1 0x0 CALLER PUSH20 0xFFFFFFFFFFFFFFFFFFFFFFFFFFFFFFFFFFFFFFFF AND PUSH20 0xFFFFFFFFFFFFFFFFFFFFFFFFFFFFFFFFFFFFFFFF AND DUP2 MSTORE PUSH1 0x20 ADD SWAP1 DUP2 MSTORE PUSH1 0x20 ADD PUSH1 0x0 KECCAK256 SLOAD GT ISZERO PUSH2 0xDB1 JUMPI PUSH1 0x2 PUSH1 0x0 DUP2 SLOAD DUP1 SWAP3 SWAP2 SWAP1 PUSH2 0xC6C SWAP1 PUSH2 0x28A7 JUMP JUMPDEST SWAP2 SWAP1 POP SSTORE POP PUSH1 0x3 PUSH1 0x0 DUP2 SLOAD DUP1 SWAP3 SWAP2 SWAP1 PUSH2 0xC84 SWAP1 PUSH2 0x28A7 JUMP JUMPDEST SWAP2 SWAP1 POP SSTORE POP PUSH1 0xA PUSH1 0x0 DUP2 SLOAD DUP1 SWAP3 SWAP2 SWAP1 PUSH2 0xC9C SWAP1 PUSH2 0x28A7 JUMP JUMPDEST SWAP2 SWAP1 POP SSTORE POP CALLER PUSH20 0xFFFFFFFFFFFFFFFFFFFFFFFFFFFFFFFFFFFFFFFF AND PUSH32 0xA7294A043FB42F56DFCC6A7EA6CEA67839BE9B3950BB784E60D1377B860588D5 PUSH1 0xC PUSH1 0x2 PUSH1 0x40 MLOAD PUSH2 0xCEB SWAP3 SWAP2 SWAP1 PUSH2 0x296F JUMP JUMPDEST PUSH1 0x40 MLOAD DUP1 SWAP2 SUB SWAP1 LOG2 CALLER PUSH20 0xFFFFFFFFFFFFFFFFFFFFFFFFFFFFFFFFFFFFFFFF AND PUSH32 0xAAC79CC982C643EE6435F139DF32FF2473EDEB42053642FE708C33236C1143D0 PUSH1 0x40 MLOAD PUSH2 0xD37 SWAP1 PUSH2 0x2A0A JUMP JUMPDEST PUSH1 0x40 MLOAD DUP1 SWAP2 SUB SWAP1 LOG2 PUSH1 0x3 PUSH1 0xA SLOAD LT PUSH2 0xDA0 JUMPI PUSH2 0xD51 PUSH2 0x1CE4 JUMP JUMPDEST CALLER PUSH20 0xFFFFFFFFFFFFFFFFFFFFFFFFFFFFFFFFFFFFFFFF AND PUSH32 0x2D408FC0A988B72D61B26CB422FB9F672B79B538A90FAE7C59CB42BA4945652A TIMESTAMP PUSH1 0x40 MLOAD PUSH2 0xD97 SWAP2 SWAP1 PUSH2 0x237D JUMP JUMPDEST PUSH1 0x40 MLOAD DUP1 SWAP2 SUB SWAP1 LOG2 JUMPDEST PUSH1 0x0 PUSH1 0x2 PUSH1 0x63 SWAP3 POP SWAP3 POP SWAP3 POP PUSH2 0x1776 JUMP JUMPDEST PUSH1 0x6 PUSH1 0x0 CALLER PUSH20 0xFFFFFFFFFFFFFFFFFFFFFFFFFFFFFFFFFFFFFFFF AND PUSH20 0xFFFFFFFFFFFFFFFFFFFFFFFFFFFFFFFFFFFFFFFF AND DUP2 MSTORE PUSH1 0x20 ADD SWAP1 DUP2 MSTORE PUSH1 0x20 ADD PUSH1 0x0 KECCAK256 PUSH1 0x0 DUP2 SLOAD DUP1 SWAP3 SWAP2 SWAP1 PUSH2 0xE01 SWAP1 PUSH2 0x28A7 JUMP JUMPDEST SWAP2 SWAP1 POP SSTORE POP PUSH2 0xE0E PUSH2 0x1F86 JUMP JUMPDEST PUSH1 0x0 DUP2 PUSH1 0x0 PUSH1 0xA DUP2 LT PUSH2 0xE24 JUMPI PUSH2 0xE23 PUSH2 0x2A2A JUMP JUMPDEST JUMPDEST PUSH1 0x20 MUL ADD DUP2 DUP2 MSTORE POP POP DUP6 DUP2 PUSH1 0x1 PUSH1 0xA DUP2 LT PUSH2 0xE42 JUMPI PUSH2 0xE41 PUSH2 0x2A2A JUMP JUMPDEST JUMPDEST PUSH1 0x20 MUL ADD DUP2 DUP2 MSTORE POP POP DUP8 DUP8 SWAP1 POP DUP2 PUSH1 0x2 PUSH1 0xA DUP2 LT PUSH2 0xE63 JUMPI PUSH2 0xE62 PUSH2 0x2A2A JUMP JUMPDEST JUMPDEST PUSH1 0x20 MUL ADD DUP2 DUP2 MSTORE POP POP PUSH1 0x4 DUP9 DUP9 SWAP1 POP LT ISZERO PUSH2 0xE7F JUMPI PUSH1 0x0 PUSH2 0xE96 JUMP JUMPDEST DUP8 DUP8 SWAP1 PUSH2 0xE8C SWAP2 SWAP1 PUSH2 0x2A71 JUMP JUMPDEST PUSH1 0xE0 SHR PUSH4 0xFFFFFFFF AND JUMPDEST DUP2 PUSH1 0x3 PUSH1 0xA DUP2 LT PUSH2 0xEAA JUMPI PUSH2 0xEA9 PUSH2 0x2A2A JUMP JUMPDEST JUMPDEST PUSH1 0x20 MUL ADD DUP2 DUP2 MSTORE POP POP PUSH1 0x0 CALLER PUSH20 0xFFFFFFFFFFFFFFFFFFFFFFFFFFFFFFFFFFFFFFFF AND EXTCODESIZE GT PUSH2 0xED9 JUMPI PUSH1 0x0 PUSH2 0xEDC JUMP JUMPDEST PUSH1 0x1 JUMPDEST PUSH1 0xFF AND DUP2 PUSH1 0x4 PUSH1 0xA DUP2 LT PUSH2 0xEF3 JUMPI PUSH2 0xEF2 PUSH2 0x2A2A JUMP JUMPDEST JUMPDEST PUSH1 0x20 MUL ADD DUP2 DUP2 MSTORE POP POP PUSH1 0x0 PUSH1 0x7 PUSH1 0x0 CALLER PUSH20 0xFFFFFFFFFFFFFFFFFFFFFFFFFFFFFFFFFFFFFFFF AND PUSH20 0xFFFFFFFFFFFFFFFFFFFFFFFFFFFFFFFFFFFFFFFF AND DUP2 MSTORE PUSH1 0x20 ADD SWAP1 DUP2 MSTORE PUSH1 0x20 ADD PUSH1 0x0 KECCAK256 SLOAD EQ PUSH2 0xF93 JUMPI PUSH1 0x7 PUSH1 0x0 CALLER PUSH20 0xFFFFFFFFFFFFFFFFFFFFFFFFFFFFFFFFFFFFFFFF AND PUSH20 0xFFFFFFFFFFFFFFFFFFFFFFFFFFFFFFFFFFFFFFFF AND DUP2 MSTORE PUSH1 0x20 ADD SWAP1 DUP2 MSTORE PUSH1 0x20 ADD PUSH1 0x0 KECCAK256 SLOAD NUMBER PUSH2 0xF8E SWAP2 SWAP1 PUSH2 0x2AD0 JUMP JUMPDEST PUSH2 0xF96 JUMP JUMPDEST PUSH1 0x0 JUMPDEST DUP2 PUSH1 0x5 PUSH1 0xA DUP2 LT PUSH2 0xFAA JUMPI PUSH2 0xFA9 PUSH2 0x2A2A JUMP JUMPDEST JUMPDEST PUSH1 0x20 MUL ADD DUP2 DUP2 MSTORE POP POP PUSH1 0x8 PUSH1 0x0 CALLER PUSH20 0xFFFFFFFFFFFFFFFFFFFFFFFFFFFFFFFFFFFFFFFF AND PUSH20 0xFFFFFFFFFFFFFFFFFFFFFFFFFFFFFFFFFFFFFFFF AND DUP2 MSTORE PUSH1 0x20 ADD SWAP1 DUP2 MSTORE PUSH1 0x20 ADD PUSH1 0x0 KECCAK256 PUSH1 0x0 NUMBER DUP2 MSTORE PUSH1 0x20 ADD SWAP1 DUP2 MSTORE PUSH1 0x20 ADD PUSH1 0x0 KECCAK256 SLOAD DUP2 PUSH1 0x6 PUSH1 0xA DUP2 LT PUSH2 0x1018 JUMPI PUSH2 0x1017 PUSH2 0x2A2A JUMP JUMPDEST JUMPDEST PUSH1 0x20 MUL ADD DUP2 DUP2 MSTORE POP POP PUSH1 0x9 PUSH1 0x0 CALLER PUSH20 0xFFFFFFFFFFFFFFFFFFFFFFFFFFFFFFFFFFFFFFFF AND PUSH20 0xFFFFFFFFFFFFFFFFFFFFFFFFFFFFFFFFFFFFFFFF AND DUP2 MSTORE PUSH1 0x20 ADD SWAP1 DUP2 MSTORE PUSH1 0x20 ADD PUSH1 0x0 KECCAK256 PUSH1 0x0 NUMBER DUP2 MSTORE PUSH1 0x20 ADD SWAP1 DUP2 MSTORE PUSH1 0x20 ADD PUSH1 0x0 KECCAK256 SLOAD DUP2 PUSH1 0x7 PUSH1 0xA DUP2 LT PUSH2 0x1086 JUMPI PUSH2 0x1085 PUSH2 0x2A2A JUMP JUMPDEST JUMPDEST PUSH1 0x20 MUL ADD DUP2 DUP2 MSTORE POP POP PUSH1 0x0 DUP6 GT PUSH2 0x109E JUMPI PUSH1 0x0 PUSH2 0x10B8 JUMP JUMPDEST DUP5 PUSH2 0x3E8 DUP8 PUSH2 0x10AD SWAP2 SWAP1 PUSH2 0x2B04 JUMP JUMPDEST PUSH2 0x10B7 SWAP2 SWAP1 PUSH2 0x2B75 JUMP JUMPDEST JUMPDEST DUP2 PUSH1 0x8 PUSH1 0xA DUP2 LT PUSH2 0x10CC JUMPI PUSH2 0x10CB PUSH2 0x2A2A JUMP JUMPDEST JUMPDEST PUSH1 0x20 MUL ADD DUP2 DUP2 MSTORE POP POP PUSH32 0x0 NUMBER PUSH2 0x1101 SWAP2 SWAP1 PUSH2 0x2AD0 JUMP JUMPDEST DUP2 PUSH1 0x9 PUSH1 0xA DUP2 LT PUSH2 0x1115 JUMPI PUSH2 0x1114 PUSH2 0x2A2A JUMP JUMPDEST JUMPDEST PUSH1 0x20 MUL ADD DUP2 DUP2 MSTORE POP POP PUSH1 0x0 PUSH1 0x7 PUSH1 0x0 CALLER PUSH20 0xFFFFFFFFFFFFFFFFFFFFFFFFFFFFFFFFFFFFFFFF AND PUSH20 0xFFFFFFFFFFFFFFFFFFFFFFFFFFFFFFFFFFFFFFFF AND DUP2 MSTORE PUSH1 0x20 ADD SWAP1 DUP2 MSTORE PUSH1 0x20 ADD PUSH1 0x0 KECCAK256 SLOAD SUB PUSH2 0x11AA JUMPI NUMBER PUSH1 0x7 PUSH1 0x0 CALLER PUSH20 0xFFFFFFFFFFFFFFFFFFFFFFFFFFFFFFFFFFFFFFFF AND PUSH20 0xFFFFFFFFFFFFFFFFFFFFFFFFFFFFFFFFFFFFFFFF AND DUP2 MSTORE PUSH1 0x20 ADD SWAP1 DUP2 MSTORE PUSH1 0x20 ADD PUSH1 0x0 KECCAK256 DUP2 SWAP1 SSTORE POP JUMPDEST PUSH1 0x8 PUSH1 0x0 CALLER PUSH20 0xFFFFFFFFFFFFFFFFFFFFFFFFFFFFFFFFFFFFFFFF AND PUSH20 0xFFFFFFFFFFFFFFFFFFFFFFFFFFFFFFFFFFFFFFFF AND DUP2 MSTORE PUSH1 0x20 ADD SWAP1 DUP2 MSTORE PUSH1 0x20 ADD PUSH1 0x0 KECCAK256 PUSH1 0x0 NUMBER DUP2 MSTORE PUSH1 0x20 ADD SWAP1 DUP2 MSTORE PUSH1 0x20 ADD PUSH1 0x0 KECCAK256 PUSH1 0x0 DUP2 SLOAD DUP1 SWAP3 SWAP2 SWAP1 PUSH2 0x120B SWAP1 PUSH2 0x28A7 JUMP JUMPDEST SWAP2 SWAP1 POP SSTORE POP DUP6 PUSH1 0x9 PUSH1 0x0 CALLER PUSH20 0xFFFFFFFFFFFFFFFFFFFFFFFFFFFFFFFFFFFFFFFF AND PUSH20 0xFFFFFFFFFFFFFFFFFFFFFFFFFFFFFFFFFFFFFFFF AND DUP2 MSTORE PUSH1 0x20 ADD SWAP1 DUP2 MSTORE PUSH1 0x20 ADD PUSH1 0x0 KECCAK256 PUSH1 0x0 NUMBER DUP2 MSTORE PUSH1 0x20 ADD SWAP1 DUP2 MSTORE PUSH1 0x20 ADD PUSH1 0x0 KECCAK256 PUSH1 0x0 DUP3 DUP3 SLOAD PUSH2 0x1270 SWAP2 SWAP1 PUSH2 0x2BA6 JUMP JUMPDEST SWAP3 POP POP DUP2 SWAP1 SSTORE POP PUSH1 0x0 DUP1 PUSH20 0xFFFFFFFFFFFFFFFFFFFFFFFFFFFFFFFFFFFFFFFF AND PUSH1 0x1 DUP1 SLOAD SWAP1 PUSH2 0x100 EXP SWAP1 DIV PUSH20 0xFFFFFFFFFFFFFFFFFFFFFFFFFFFFFFFFFFFFFFFF AND PUSH20 0xFFFFFFFFFFFFFFFFFFFFFFFFFFFFFFFFFFFFFFFF AND EQ PUSH2 0x141D JUMPI PUSH1 0x0 DUP1 PUSH1 0x1 DUP1 SLOAD SWAP1 PUSH2 0x100 EXP SWAP1 DIV PUSH20 0xFFFFFFFFFFFFFFFFFFFFFFFFFFFFFFFFFFFFFFFF AND PUSH20 0xFFFFFFFFFFFFFFFFFFFFFFFFFFFFFFFFFFFFFFFF AND DUP5 PUSH1 0x40 MLOAD PUSH1 0x20 ADD PUSH2 0x1317 SWAP2 SWAP1 PUSH2 0x2C76 JUMP JUMPDEST PUSH1 0x40 MLOAD PUSH1 0x20 DUP2 DUP4 SUB SUB DUP2 MSTORE SWAP1 PUSH1 0x40 MSTORE PUSH1 0x40 MLOAD PUSH2 0x1333 SWAP2 SWAP1 PUSH2 0x2D03 JUMP JUMPDEST PUSH1 0x0 PUSH1 0x40 MLOAD DUP1 DUP4 SUB DUP2 DUP6 GAS STATICCALL SWAP2 POP POP RETURNDATASIZE DUP1 PUSH1 0x0 DUP2 EQ PUSH2 0x136E JUMPI PUSH1 0x40 MLOAD SWAP2 POP PUSH1 0x1F NOT PUSH1 0x3F RETURNDATASIZE ADD AND DUP3 ADD PUSH1 0x40 MSTORE RETURNDATASIZE DUP3 MSTORE RETURNDATASIZE PUSH1 0x0 PUSH1 0x20 DUP5 ADD RETURNDATACOPY PUSH2 0x1373 JUMP JUMPDEST PUSH1 0x60 SWAP2 POP JUMPDEST POP SWAP2 POP SWAP2 POP DUP2 DUP1 ISZERO PUSH2 0x1387 JUMPI POP PUSH1 0x3 DUP2 MLOAD LT ISZERO JUMPDEST ISZERO PUSH2 0x1400 JUMPI DUP1 PUSH1 0x0 DUP2 MLOAD DUP2 LT PUSH2 0x13A0 JUMPI PUSH2 0x139F PUSH2 0x2A2A JUMP JUMPDEST JUMPDEST PUSH1 0x20 ADD ADD MLOAD PUSH1 0xF8 SHR PUSH1 0xF8 SHL PUSH1 0xF8 SHR SWAP6 POP DUP1 PUSH1 0x1 DUP2 MLOAD DUP2 LT PUSH2 0x13C4 JUMPI PUSH2 0x13C3 PUSH2 0x2A2A JUMP JUMPDEST JUMPDEST PUSH1 0x20 ADD ADD MLOAD PUSH1 0xF8 SHR PUSH1 0xF8 SHL PUSH1 0xF8 SHR SWAP5 POP DUP1 PUSH1 0x2 DUP2 MLOAD DUP2 LT PUSH2 0x13E8 JUMPI PUSH2 0x13E7 PUSH2 0x2A2A JUMP JUMPDEST JUMPDEST PUSH1 0x20 ADD ADD MLOAD PUSH1 0xF8 SHR PUSH1 0xF8 SHL PUSH1 0xF8 SHR PUSH1 0xFF AND SWAP3 POP PUSH2 0x1416 JUMP JUMPDEST PUSH2 0x1409 DUP5 PUSH2 0x1D87 JUMP JUMPDEST DUP1 SWAP6 POP DUP2 SWAP8 POP DUP3 SWAP9 POP POP POP POP JUMPDEST POP POP PUSH2 0x1433 JUMP JUMPDEST PUSH2 0x1426 DUP3 PUSH2 0x1D87 JUMP JUMPDEST DUP1 SWAP4 POP DUP2 SWAP6 POP DUP3 SWAP7 POP POP POP POP JUMPDEST PUSH1 0x2 PUSH1 0x0 DUP2 SLOAD DUP1 SWAP3 SWAP2 SWAP1 PUSH2 0x1446 SWAP1 PUSH2 0x28A7 JUMP JUMPDEST SWAP2 SWAP1 POP SSTORE POP PUSH1 0x1 PUSH1 0x15 SWAP1 SLOAD SWAP1 PUSH2 0x100 EXP SWAP1 DIV PUSH1 0xFF AND PUSH1 0xFF AND DUP5 PUSH1 0xFF AND LT SWAP5 POP DUP5 PUSH2 0x1598 JUMPI PUSH1 0x3 PUSH1 0x0 DUP2 SLOAD DUP1 SWAP3 SWAP2 SWAP1 PUSH2 0x147D SWAP1 PUSH2 0x28A7 JUMP JUMPDEST SWAP2 SWAP1 POP SSTORE POP PUSH1 0xA PUSH1 0x0 DUP2 SLOAD DUP1 SWAP3 SWAP2 SWAP1 PUSH2 0x1495 SWAP1 PUSH2 0x28A7 JUMP JUMPDEST SWAP2 SWAP1 POP SSTORE POP CALLER PUSH20 0xFFFFFFFFFFFFFFFFFFFFFFFFFFFFFFFFFFFFFFFF AND PUSH32 0xA7294A043FB42F56DFCC6A7EA6CEA67839BE9B3950BB784E60D1377B860588D5 DUP3 DUP7 PUSH1 0x40 MLOAD PUSH2 0x14E2 SWAP3 SWAP2 SWAP1 PUSH2 0x2D1A JUMP JUMPDEST PUSH1 0x40 MLOAD DUP1 SWAP2 SUB SWAP1 LOG2 CALLER PUSH20 0xFFFFFFFFFFFFFFFFFFFFFFFFFFFFFFFFFFFFFFFF AND PUSH32 0xAAC79CC982C643EE6435F139DF32FF2473EDEB42053642FE708C33236C1143D0 PUSH1 0x40 MLOAD PUSH2 0x152E SWAP1 PUSH2 0x2DB5 JUMP JUMPDEST PUSH1 0x40 MLOAD DUP1 SWAP2 SUB SWAP1 LOG2 PUSH1 0x3 PUSH1 0xA SLOAD LT PUSH2 0x1597 JUMPI PUSH2 0x1548 PUSH2 0x1CE4 JUMP JUMPDEST CALLER PUSH20 0xFFFFFFFFFFFFFFFFFFFFFFFFFFFFFFFFFFFFFFFF AND PUSH32 0x2D408FC0A988B72D61B26CB422FB9F672B79B538A90FAE7C59CB42BA4945652A TIMESTAMP PUSH1 0x40 MLOAD PUSH2 0x158E SWAP2 SWAP1 PUSH2 0x237D JUMP JUMPDEST PUSH1 0x40 MLOAD DUP1 SWAP2 SUB SWAP1 LOG2 JUMPDEST JUMPDEST ORIGIN PUSH20 0xFFFFFFFFFFFFFFFFFFFFFFFFFFFFFFFFFFFFFFFF AND CALLER PUSH20 0xFFFFFFFFFFFFFFFFFFFFFFFFFFFFFFFFFFFFFFFF AND PUSH32 0x3A86DA51B4CDE030B1F9F7F609647FA3A96AC1584975BD8258E178296F4C4E2 DUP7 DUP7 PUSH1 0x40 MLOAD PUSH2 0x15F7 SWAP3 SWAP2 SWAP1 PUSH2 0x2DD5 JUMP JUMPDEST PUSH1 0x40 MLOAD DUP1 SWAP2 SUB SWAP1 LOG3 PUSH1 0x0 CALLER NUMBER PUSH1 0x2 SLOAD PUSH1 0x40 MLOAD PUSH1 0x20 ADD PUSH2 0x1618 SWAP4 SWAP3 SWAP2 SWAP1 PUSH2 0x2E67 JUMP JUMPDEST PUSH1 0x40 MLOAD PUSH1 0x20 DUP2 DUP4 SUB SUB DUP2 MSTORE SWAP1 PUSH1 0x40 MSTORE DUP1 MLOAD SWAP1 PUSH1 0x20 ADD KECCAK256 SWAP1 POP PUSH1 0x40 MLOAD DUP1 PUSH1 0xC0 ADD PUSH1 0x40 MSTORE DUP1 DUP7 PUSH1 0xFF AND DUP2 MSTORE PUSH1 0x20 ADD DUP6 PUSH1 0xFF AND DUP2 MSTORE PUSH1 0x20 ADD DUP4 PUSH4 0xFFFFFFFF AND DUP2 MSTORE PUSH1 0x20 ADD CALLER PUSH20 0xFFFFFFFFFFFFFFFFFFFFFFFFFFFFFFFFFFFFFFFF AND DUP2 MSTORE PUSH1 0x20 ADD TIMESTAMP DUP2 MSTORE PUSH1 0x20 ADD DUP8 ISZERO ISZERO ISZERO DUP2 MSTORE POP PUSH1 0x5 PUSH1 0x0 DUP4 DUP2 MSTORE PUSH1 0x20 ADD SWAP1 DUP2 MSTORE PUSH1 0x20 ADD PUSH1 0x0 KECCAK256 PUSH1 0x0 DUP3 ADD MLOAD DUP2 PUSH1 0x0 ADD PUSH1 0x0 PUSH2 0x100 EXP DUP2 SLOAD DUP2 PUSH1 0xFF MUL NOT AND SWAP1 DUP4 PUSH1 0xFF AND MUL OR SWAP1 SSTORE POP PUSH1 0x20 DUP3 ADD MLOAD DUP2 PUSH1 0x0 ADD PUSH1 0x1 PUSH2 0x100 EXP DUP2 SLOAD DUP2 PUSH1 0xFF MUL NOT AND SWAP1 DUP4 PUSH1 0xFF AND MUL OR SWAP1 SSTORE POP PUSH1 0x40 DUP3 ADD MLOAD DUP2 PUSH1 0x0 ADD PUSH1 0x2 PUSH2 0x100 EXP DUP2 SLOAD DUP2 PUSH4 0xFFFFFFFF MUL NOT AND SWAP1 DUP4 PUSH4 0xFFFFFFFF AND MUL OR SWAP1 SSTORE POP PUSH1 0x60 DUP3 ADD MLOAD DUP2 PUSH1 0x0 ADD PUSH1 0x6 PUSH2 0x100 EXP DUP2 SLOAD DUP2 PUSH20 0xFFFFFFFFFFFFFFFFFFFFFFFFFFFFFFFFFFFFFFFF MUL NOT AND SWAP1 DUP4 PUSH20 0xFFFFFFFFFFFFFFFFFFFFFFFFFFFFFFFFFFFFFFFF AND MUL OR SWAP1 SSTORE POP PUSH1 0x80 DUP3 ADD MLOAD DUP2 PUSH1 0x1 ADD SSTORE PUSH1 0xA0 DUP3 ADD MLOAD DUP2 PUSH1 0x2 ADD PUSH1 0x0 PUSH2 0x100 EXP DUP2 SLOAD DUP2 PUSH1 0xFF MUL NOT AND SWAP1 DUP4 ISZERO ISZERO MUL OR SWAP1 SSTORE POP SWAP1 POP POP POP POP POP JUMPDEST SWAP5 POP SWAP5 POP SWAP5 SWAP2 POP POP JUMP JUMPDEST PUSH1 0x5 PUSH1 0x20 MSTORE DUP1 PUSH1 0x0 MSTORE PUSH1 0x40 PUSH1 0x0 KECCAK256 PUSH1 0x0 SWAP2 POP SWAP1 POP DUP1 PUSH1 0x0 ADD PUSH1 0x0 SWAP1 SLOAD SWAP1 PUSH2 0x100 EXP SWAP1 DIV PUSH1 0xFF AND SWAP1 DUP1 PUSH1 0x0 ADD PUSH1 0x1 SWAP1 SLOAD SWAP1 PUSH2 0x100 EXP SWAP1 DIV PUSH1 0xFF AND SWAP1 DUP1 PUSH1 0x0 ADD PUSH1 0x2 SWAP1 SLOAD SWAP1 PUSH2 0x100 EXP SWAP1 DIV PUSH4 0xFFFFFFFF AND SWAP1 DUP1 PUSH1 0x0 ADD PUSH1 0x6 SWAP1 SLOAD SWAP1 PUSH2 0x100 EXP SWAP1 DIV PUSH20 0xFFFFFFFFFFFFFFFFFFFFFFFFFFFFFFFFFFFFFFFF AND SWAP1 DUP1 PUSH1 0x1 ADD SLOAD SWAP1 DUP1 PUSH1 0x2 ADD PUSH1 0x0 SWAP1 SLOAD SWAP1 PUSH2 0x100 EXP SWAP1 DIV PUSH1 0xFF AND SWAP1 POP DUP7 JUMP JUMPDEST PUSH1 0x0 DUP1 SHL PUSH2 0x1820 DUP2 PUSH2 0x1A82 JUMP JUMPDEST DUP2 PUSH1 0x1 DUP1 PUSH2 0x100 EXP DUP2 SLOAD DUP2 PUSH20 0xFFFFFFFFFFFFFFFFFFFFFFFFFFFFFFFFFFFFFFFF MUL NOT AND SWAP1 DUP4 PUSH20 0xFFFFFFFFFFFFFFFFFFFFFFFFFFFFFFFFFFFFFFFF AND MUL OR SWAP1 SSTORE POP POP POP JUMP JUMPDEST PUSH1 0x0 DUP1 PUSH1 0x0 DUP5 DUP2 MSTORE PUSH1 0x20 ADD SWAP1 DUP2 MSTORE PUSH1 0x20 ADD PUSH1 0x0 KECCAK256 PUSH1 0x0 ADD PUSH1 0x0 DUP4 PUSH20 0xFFFFFFFFFFFFFFFFFFFFFFFFFFFFFFFFFFFFFFFF AND PUSH20 0xFFFFFFFFFFFFFFFFFFFFFFFFFFFFFFFFFFFFFFFF AND DUP2 MSTORE PUSH1 0x20 ADD SWAP1 DUP2 MSTORE PUSH1 0x20 ADD PUSH1 0x0 KECCAK256 PUSH1 0x0 SWAP1 SLOAD SWAP1 PUSH2 0x100 EXP SWAP1 DIV PUSH1 0xFF AND SWAP1 POP SWAP3 SWAP2 POP POP JUMP JUMPDEST PUSH1 0x1 DUP1 SLOAD SWAP1 PUSH2 0x100 EXP SWAP1 DIV PUSH20 0xFFFFFFFFFFFFFFFFFFFFFFFFFFFFFFFFFFFFFFFF AND DUP2 JUMP JUMPDEST PUSH1 0x0 DUP1 SHL DUP2 JUMP JUMPDEST PUSH32 0x0 DUP2 JUMP JUMPDEST PUSH1 0x0 DUP1 PUSH1 0x0 PUSH2 0x192B DUP5 PUSH2 0x1D87 JUMP JUMPDEST SWAP3 POP SWAP3 POP SWAP3 POP SWAP2 SWAP4 SWAP1 SWAP3 POP JUMP JUMPDEST PUSH1 0x2 SLOAD DUP2 JUMP JUMPDEST PUSH1 0x0 DUP1 PUSH1 0x2 SLOAD PUSH1 0x3 SLOAD SWAP2 POP SWAP2 POP SWAP1 SWAP2 JUMP JUMPDEST PUSH2 0x1958 DUP3 PUSH2 0x859 JUMP JUMPDEST PUSH2 0x1961 DUP2 PUSH2 0x1A82 JUMP JUMPDEST PUSH2 0x196B DUP4 DUP4 PUSH2 0x1B8F JUMP JUMPDEST POP POP POP POP JUMP JUMPDEST PUSH1 0xA SLOAD DUP2 JUMP JUMPDEST PUSH1 0x7 PUSH1 0x20 MSTORE DUP1 PUSH1 0x0 MSTORE PUSH1 0x40 PUSH1 0x0 KECCAK256 PUSH1 0x0 SWAP2 POP SWAP1 POP SLOAD DUP2 JUMP JUMPDEST PUSH1 0x0 DUP1 SHL PUSH2 0x199C DUP2 PUSH2 0x1A82 JUMP JUMPDEST PUSH1 0x1 DUP3 PUSH1 0xFF AND LT ISZERO DUP1 ISZERO PUSH2 0x19B4 JUMPI POP PUSH1 0x2 DUP3 PUSH1 0xFF AND GT ISZERO JUMPDEST PUSH2 0x19F3 JUMPI PUSH1 0x40 MLOAD PUSH32 0x8C379A000000000000000000000000000000000000000000000000000000000 DUP2 MSTORE PUSH1 0x4 ADD PUSH2 0x19EA SWAP1 PUSH2 0x2EF0 JUMP JUMPDEST PUSH1 0x40 MLOAD DUP1 SWAP2 SUB SWAP1 REVERT JUMPDEST DUP2 PUSH1 0x1 PUSH1 0x15 PUSH2 0x100 EXP DUP2 SLOAD DUP2 PUSH1 0xFF MUL NOT AND SWAP1 DUP4 PUSH1 0xFF AND MUL OR SWAP1 SSTORE POP POP POP JUMP JUMPDEST PUSH1 0x3 SLOAD DUP2 JUMP JUMPDEST PUSH1 0x0 PUSH32 0x1FFC9A700000000000000000000000000000000000000000000000000000000 PUSH28 0xFFFFFFFFFFFFFFFFFFFFFFFFFFFFFFFFFFFFFFFFFFFFFFFFFFFFFFFF NOT AND DUP3 PUSH28 0xFFFFFFFFFFFFFFFFFFFFFFFFFFFFFFFFFFFFFFFFFFFFFFFFFFFFFFFF NOT AND EQ SWAP1 POP SWAP2 SWAP1 POP JUMP JUMPDEST PUSH2 0x1A93 DUP2 PUSH2 0x1A8E PUSH2 0x1B87 JUMP JUMPDEST PUSH2 0x1E9B JUMP JUMPDEST POP JUMP JUMPDEST PUSH1 0x0 PUSH2 0x1AA2 DUP4 DUP4 PUSH2 0x1864 JUMP JUMPDEST PUSH2 0x1B7C JUMPI PUSH1 0x1 PUSH1 0x0 DUP1 DUP6 DUP2 MSTORE PUSH1 0x20 ADD SWAP1 DUP2 MSTORE PUSH1 0x20 ADD PUSH1 0x0 KECCAK256 PUSH1 0x0 ADD PUSH1 0x0 DUP5 PUSH20 0xFFFFFFFFFFFFFFFFFFFFFFFFFFFFFFFFFFFFFFFF AND PUSH20 0xFFFFFFFFFFFFFFFFFFFFFFFFFFFFFFFFFFFFFFFF AND DUP2 MSTORE PUSH1 0x20 ADD SWAP1 DUP2 MSTORE PUSH1 0x20 ADD PUSH1 0x0 KECCAK256 PUSH1 0x0 PUSH2 0x100 EXP DUP2 SLOAD DUP2 PUSH1 0xFF MUL NOT AND SWAP1 DUP4 ISZERO ISZERO MUL OR SWAP1 SSTORE POP PUSH2 0x1B19 PUSH2 0x1B87 JUMP JUMPDEST PUSH20 0xFFFFFFFFFFFFFFFFFFFFFFFFFFFFFFFFFFFFFFFF AND DUP3 PUSH20 0xFFFFFFFFFFFFFFFFFFFFFFFFFFFFFFFFFFFFFFFF AND DUP5 PUSH32 0x2F8788117E7EFF1D82E926EC794901D17C78024A50270940304540A733656F0D PUSH1 0x40 MLOAD PUSH1 0x40 MLOAD DUP1 SWAP2 SUB SWAP1 LOG4 PUSH1 0x1 SWAP1 POP PUSH2 0x1B81 JUMP JUMPDEST PUSH1 0x0 SWAP1 POP JUMPDEST SWAP3 SWAP2 POP POP JUMP JUMPDEST PUSH1 0x0 CALLER SWAP1 POP SWAP1 JUMP JUMPDEST PUSH1 0x0 PUSH2 0x1B9B DUP4 DUP4 PUSH2 0x1864 JUMP JUMPDEST ISZERO PUSH2 0x1C76 JUMPI PUSH1 0x0 DUP1 PUSH1 0x0 DUP6 DUP2 MSTORE PUSH1 0x20 ADD SWAP1 DUP2 MSTORE PUSH1 0x20 ADD PUSH1 0x0 KECCAK256 PUSH1 0x0 ADD PUSH1 0x0 DUP5 PUSH20 0xFFFFFFFFFFFFFFFFFFFFFFFFFFFFFFFFFFFFFFFF AND PUSH20 0xFFFFFFFFFFFFFFFFFFFFFFFFFFFFFFFFFFFFFFFF AND DUP2 MSTORE PUSH1 0x20 ADD SWAP1 DUP2 MSTORE PUSH1 0x20 ADD PUSH1 0x0 KECCAK256 PUSH1 0x0 PUSH2 0x100 EXP DUP2 SLOAD DUP2 PUSH1 0xFF MUL NOT AND SWAP1 DUP4 ISZERO ISZERO MUL OR SWAP1 SSTORE POP PUSH2 0x1C13 PUSH2 0x1B87 JUMP JUMPDEST PUSH20 0xFFFFFFFFFFFFFFFFFFFFFFFFFFFFFFFFFFFFFFFF AND DUP3 PUSH20 0xFFFFFFFFFFFFFFFFFFFFFFFFFFFFFFFFFFFFFFFF AND DUP5 PUSH32 0xF6391F5C32D9C69D2A47EA670B442974B53935D1EDC7FD64EB21E047A839171B PUSH1 0x40 MLOAD PUSH1 0x40 MLOAD DUP1 SWAP2 SUB SWAP1 LOG4 PUSH1 0x1 SWAP1 POP PUSH2 0x1C7B JUMP JUMPDEST PUSH1 0x0 SWAP1 POP JUMPDEST SWAP3 SWAP2 POP POP JUMP JUMPDEST PUSH2 0x1C89 PUSH2 0x1EEC JUMP JUMPDEST PUSH1 0x0 PUSH1 0x1 PUSH1 0x0 PUSH2 0x100 EXP DUP2 SLOAD DUP2 PUSH1 0xFF MUL NOT AND SWAP1 DUP4 ISZERO ISZERO MUL OR SWAP1 SSTORE POP PUSH32 0x5DB9EE0A495BF2E6FF9C91A7834C1BA4FDD244A5E8AA4E537BD38AEAE4B073AA PUSH2 0x1CCD PUSH2 0x1B87 JUMP JUMPDEST PUSH1 0x40 MLOAD PUSH2 0x1CDA SWAP2 SWAP1 PUSH2 0x2527 JUMP JUMPDEST PUSH1 0x40 MLOAD DUP1 SWAP2 SUB SWAP1 LOG1 JUMP JUMPDEST PUSH2 0x1CEC PUSH2 0x1D46 JUMP JUMPDEST PUSH1 0x1 DUP1 PUSH1 0x0 PUSH2 0x100 EXP DUP2 SLOAD DUP2 PUSH1 0xFF MUL NOT AND SWAP1 DUP4 ISZERO ISZERO MUL OR SWAP1 SSTORE POP PUSH32 0x62E78CEA01BEE320CD4E420270B5EA74000D11B0C9F74754EBDBFC544B05A258 PUSH2 0x1D2F PUSH2 0x1B87 JUMP JUMPDEST PUSH1 0x40 MLOAD PUSH2 0x1D3C SWAP2 SWAP1 PUSH2 0x2527 JUMP JUMPDEST PUSH1 0x40 MLOAD DUP1 SWAP2 SUB SWAP1 LOG1 JUMP JUMPDEST PUSH2 0x1D4E PUSH2 0xBED JUMP JUMPDEST ISZERO PUSH2 0x1D85 JUMPI PUSH1 0x40 MLOAD PUSH32 0xD93C066500000000000000000000000000000000000000000000000000000000 DUP2 MSTORE PUSH1 0x4 ADD PUSH1 0x40 MLOAD DUP1 SWAP2 SUB SWAP1 REVERT JUMPDEST JUMP JUMPDEST PUSH1 0x0 DUP1 PUSH1 0x0 DUP1 DUP5 PUSH1 0x4 PUSH1 0xA DUP2 LT PUSH2 0x1DA1 JUMPI PUSH2 0x1DA0 PUSH2 0x2A2A JUMP JUMPDEST JUMPDEST PUSH1 0x20 MUL ADD MLOAD GT ISZERO PUSH2 0x1E54 JUMPI PUSH1 0x0 DUP5 PUSH1 0x5 PUSH1 0xA DUP2 LT PUSH2 0x1DC2 JUMPI PUSH2 0x1DC1 PUSH2 0x2A2A JUMP JUMPDEST JUMPDEST PUSH1 0x20 MUL ADD MLOAD SUB PUSH2 0x1E10 JUMPI PUSH2 0x12C DUP5 PUSH1 0x8 PUSH1 0xA DUP2 LT PUSH2 0x1DE3 JUMPI PUSH2 0x1DE2 PUSH2 0x2A2A JUMP JUMPDEST JUMPDEST PUSH1 0x20 MUL ADD MLOAD GT ISZERO PUSH2 0x1DFF JUMPI PUSH1 0x2 PUSH1 0x5B PUSH1 0x9 SWAP3 POP SWAP3 POP SWAP3 POP PUSH2 0x1E94 JUMP JUMPDEST PUSH1 0x1 PUSH1 0x37 PUSH1 0x7 SWAP3 POP SWAP3 POP SWAP3 POP PUSH2 0x1E94 JUMP JUMPDEST PUSH2 0x2BC DUP5 PUSH1 0x8 PUSH1 0xA DUP2 LT PUSH2 0x1E27 JUMPI PUSH2 0x1E26 PUSH2 0x2A2A JUMP JUMPDEST JUMPDEST PUSH1 0x20 MUL ADD MLOAD GT ISZERO PUSH2 0x1E43 JUMPI PUSH1 0x1 PUSH1 0x3C PUSH1 0x8 SWAP3 POP SWAP3 POP SWAP3 POP PUSH2 0x1E94 JUMP JUMPDEST PUSH1 0x0 PUSH1 0x55 PUSH1 0xB SWAP3 POP SWAP3 POP SWAP3 POP PUSH2 0x1E94 JUMP JUMPDEST PUSH2 0x384 DUP5 PUSH1 0x8 PUSH1 0xA DUP2 LT PUSH2 0x1E6B JUMPI PUSH2 0x1E6A PUSH2 0x2A2A JUMP JUMPDEST JUMPDEST PUSH1 0x20 MUL ADD MLOAD GT ISZERO PUSH2 0x1E87 JUMPI PUSH1 0x1 PUSH1 0x2D PUSH1 0xA SWAP3 POP SWAP3 POP SWAP3 POP PUSH2 0x1E94 JUMP JUMPDEST PUSH1 0x0 PUSH1 0x5F PUSH1 0xB SWAP3 POP SWAP3 POP SWAP3 POP JUMPDEST SWAP2 SWAP4 SWAP1 SWAP3 POP JUMP JUMPDEST PUSH2 0x1EA5 DUP3 DUP3 PUSH2 0x1864 JUMP JUMPDEST PUSH2 0x1EE8 JUMPI DUP1 DUP3 PUSH1 0x40 MLOAD PUSH32 0xE2517D3F00000000000000000000000000000000000000000000000000000000 DUP2 MSTORE PUSH1 0x4 ADD PUSH2 0x1EDF SWAP3 SWAP2 SWAP1 PUSH2 0x2F10 JUMP JUMPDEST PUSH1 0x40 MLOAD DUP1 SWAP2 SUB SWAP1 REVERT JUMPDEST POP POP JUMP JUMPDEST PUSH2 0x1EF4 PUSH2 0xBED JUMP JUMPDEST PUSH2 0x1F2A JUMPI PUSH1 0x40 MLOAD PUSH32 0x8DFC202B00000000000000000000000000000000000000000000000000000000 DUP2 MSTORE PUSH1 0x4 ADD PUSH1 0x40 MLOAD DUP1 SWAP2 SUB SWAP1 REVERT JUMPDEST JUMP JUMPDEST PUSH1 0x40 MLOAD DUP1 PUSH1 0xC0 ADD PUSH1 0x40 MSTORE DUP1 PUSH1 0x0 PUSH1 0xFF AND DUP2 MSTORE PUSH1 0x20 ADD PUSH1 0x0 PUSH1 0xFF AND DUP2 MSTORE PUSH1 0x20 ADD PUSH1 0x0 PUSH4 0xFFFFFFFF AND DUP2 MSTORE PUSH1 0x20 ADD PUSH1 0x0 PUSH20 0xFFFFFFFFFFFFFFFFFFFFFFFFFFFFFFFFFFFFFFFF AND DUP2 MSTORE PUSH1 0x20 ADD PUSH1 0x0 DUP2 MSTORE PUSH1 0x20 ADD PUSH1 0x0 ISZERO ISZERO DUP2 MSTORE POP SWAP1 JUMP JUMPDEST PUSH1 0x40 MLOAD DUP1 PUSH2 0x140 ADD PUSH1 0x40 MSTORE DUP1 PUSH1 0xA SWAP1 PUSH1 0x20 DUP3 MUL DUP1 CALLDATASIZE DUP4 CALLDATACOPY DUP1 DUP3 ADD SWAP2 POP POP SWAP1 POP POP SWAP1 JUMP JUMPDEST PUSH1 0x0 PUSH1 0x40 MLOAD SWAP1 POP SWAP1 JUMP JUMPDEST PUSH1 0x0 DUP1 REVERT JUMPDEST PUSH1 0x0 DUP1 REVERT JUMPDEST PUSH1 0x0 PUSH32 0xFFFFFFFF00000000000000000000000000000000000000000000000000000000 DUP3 AND SWAP1 POP SWAP2 SWAP1 POP JUMP JUMPDEST PUSH2 0x1FF2 DUP2 PUSH2 0x1FBD JUMP JUMPDEST DUP2 EQ PUSH2 0x1FFD JUMPI PUSH1 0x0 DUP1 REVERT JUMPDEST POP JUMP JUMPDEST PUSH1 0x0 DUP2 CALLDATALOAD SWAP1 POP PUSH2 0x200F DUP2 PUSH2 0x1FE9 JUMP JUMPDEST SWAP3 SWAP2 POP POP JUMP JUMPDEST PUSH1 0x0 PUSH1 0x20 DUP3 DUP5 SUB SLT ISZERO PUSH2 0x202B JUMPI PUSH2 0x202A PUSH2 0x1FB3 JUMP JUMPDEST JUMPDEST PUSH1 0x0 PUSH2 0x2039 DUP5 DUP3 DUP6 ADD PUSH2 0x2000 JUMP JUMPDEST SWAP2 POP POP SWAP3 SWAP2 POP POP JUMP JUMPDEST PUSH1 0x0 DUP2 ISZERO ISZERO SWAP1 POP SWAP2 SWAP1 POP JUMP JUMPDEST PUSH2 0x2057 DUP2 PUSH2 0x2042 JUMP JUMPDEST DUP3 MSTORE POP POP JUMP JUMPDEST PUSH1 0x0 PUSH1 0x20 DUP3 ADD SWAP1 POP PUSH2 0x2072 PUSH1 0x0 DUP4 ADD DUP5 PUSH2 0x204E JUMP JUMPDEST SWAP3 SWAP2 POP POP JUMP JUMPDEST PUSH1 0x0 DUP2 SWAP1 POP SWAP2 SWAP1 POP JUMP JUMPDEST PUSH2 0x208B DUP2 PUSH2 0x2078 JUMP JUMPDEST DUP2 EQ PUSH2 0x2096 JUMPI PUSH1 0x0 DUP1 REVERT JUMPDEST POP JUMP JUMPDEST PUSH1 0x0 DUP2 CALLDATALOAD SWAP1 POP PUSH2 0x20A8 DUP2 PUSH2 0x2082 JUMP JUMPDEST SWAP3 SWAP2 POP POP JUMP JUMPDEST PUSH1 0x0 PUSH1 0x20 DUP3 DUP5 SUB SLT ISZERO PUSH2 0x20C4 JUMPI PUSH2 0x20C3 PUSH2 0x1FB3 JUMP JUMPDEST JUMPDEST PUSH1 0x0 PUSH2 0x20D2 DUP5 DUP3 DUP6 ADD PUSH2 0x2099 JUMP JUMPDEST SWAP2 POP POP SWAP3 SWAP2 POP POP JUMP JUMPDEST PUSH1 0x0 PUSH1 0xFF DUP3 AND SWAP1 POP SWAP2 SWAP1 POP JUMP JUMPDEST PUSH2 0x20F1 DUP2 PUSH2 0x20DB JUMP JUMPDEST DUP3 MSTORE POP POP JUMP JUMPDEST PUSH1 0x0 PUSH4 0xFFFFFFFF DUP3 AND SWAP1 POP SWAP2 SWAP1 POP JUMP JUMPDEST PUSH2 0x2110 DUP2 PUSH2 0x20F7 JUMP JUMPDEST DUP3 MSTORE POP POP JUMP JUMPDEST PUSH1 0x0 PUSH20 0xFFFFFFFFFFFFFFFFFFFFFFFFFFFFFFFFFFFFFFFF DUP3 AND SWAP1 POP SWAP2 SWAP1 POP JUMP JUMPDEST PUSH1 0x0 PUSH2 0x2141 DUP3 PUSH2 0x2116 JUMP JUMPDEST SWAP1 POP SWAP2 SWAP1 POP JUMP JUMPDEST PUSH2 0x2151 DUP2 PUSH2 0x2136 JUMP JUMPDEST DUP3 MSTORE POP POP JUMP JUMPDEST PUSH1 0x0 DUP2 SWAP1 POP SWAP2 SWAP1 POP JUMP JUMPDEST PUSH2 0x216A DUP2 PUSH2 0x2157 JUMP JUMPDEST DUP3 MSTORE POP POP JUMP JUMPDEST PUSH2 0x2179 DUP2 PUSH2 0x2042 JUMP JUMPDEST DUP3 MSTORE POP POP JUMP JUMPDEST PUSH1 0xC0 DUP3 ADD PUSH1 0x0 DUP3 ADD MLOAD PUSH2 0x2195 PUSH1 0x0 DUP6 ADD DUP3 PUSH2 0x20E8 JUMP JUMPDEST POP PUSH1 0x20 DUP3 ADD MLOAD PUSH2 0x21A8 PUSH1 0x20 DUP6 ADD DUP3 PUSH2 0x20E8 JUMP JUMPDEST POP PUSH1 0x40 DUP3 ADD MLOAD PUSH2 0x21BB PUSH1 0x40 DUP6 ADD DUP3 PUSH2 0x2107 JUMP JUMPDEST POP PUSH1 0x60 DUP3 ADD MLOAD PUSH2 0x21CE PUSH1 0x60 DUP6 ADD DUP3 PUSH2 0x2148 JUMP JUMPDEST POP PUSH1 0x80 DUP3 ADD MLOAD PUSH2 0x21E1 PUSH1 0x80 DUP6 ADD DUP3 PUSH2 0x2161 JUMP JUMPDEST POP PUSH1 0xA0 DUP3 ADD MLOAD PUSH2 0x21F4 PUSH1 0xA0 DUP6 ADD DUP3 PUSH2 0x2170 JUMP JUMPDEST POP POP POP POP JUMP JUMPDEST PUSH1 0x0 PUSH1 0xC0 DUP3 ADD SWAP1 POP PUSH2 0x220F PUSH1 0x0 DUP4 ADD DUP5 PUSH2 0x217F JUMP JUMPDEST SWAP3 SWAP2 POP POP JUMP JUMPDEST PUSH2 0x221E DUP2 PUSH2 0x20DB JUMP JUMPDEST DUP3 MSTORE POP POP JUMP JUMPDEST PUSH1 0x0 PUSH1 0x20 DUP3 ADD SWAP1 POP PUSH2 0x2239 PUSH1 0x0 DUP4 ADD DUP5 PUSH2 0x2215 JUMP JUMPDEST SWAP3 SWAP2 POP POP JUMP JUMPDEST PUSH2 0x2248 DUP2 PUSH2 0x2078 JUMP JUMPDEST DUP3 MSTORE POP POP JUMP JUMPDEST PUSH1 0x0 PUSH1 0x20 DUP3 ADD SWAP1 POP PUSH2 0x2263 PUSH1 0x0 DUP4 ADD DUP5 PUSH2 0x223F JUMP JUMPDEST SWAP3 SWAP2 POP POP JUMP JUMPDEST PUSH2 0x2272 DUP2 PUSH2 0x2136 JUMP JUMPDEST DUP2 EQ PUSH2 0x227D JUMPI PUSH1 0x0 DUP1 REVERT JUMPDEST POP JUMP JUMPDEST PUSH1 0x0 DUP2 CALLDATALOAD SWAP1 POP PUSH2 0x228F DUP2 PUSH2 0x2269 JUMP JUMPDEST SWAP3 SWAP2 POP POP JUMP JUMPDEST PUSH1 0x0 PUSH1 0x20 DUP3 DUP5 SUB SLT ISZERO PUSH2 0x22AB JUMPI PUSH2 0x22AA PUSH2 0x1FB3 JUMP JUMPDEST JUMPDEST PUSH1 0x0 PUSH2 0x22B9 DUP5 DUP3 DUP6 ADD PUSH2 0x2280 JUMP JUMPDEST SWAP2 POP POP SWAP3 SWAP2 POP POP JUMP JUMPDEST PUSH1 0x0 DUP1 PUSH1 0x40 DUP4 DUP6 SUB SLT ISZERO PUSH2 0x22D9 JUMPI PUSH2 0x22D8 PUSH2 0x1FB3 JUMP JUMPDEST JUMPDEST PUSH1 0x0 PUSH2 0x22E7 DUP6 DUP3 DUP7 ADD PUSH2 0x2099 JUMP JUMPDEST SWAP3 POP POP PUSH1 0x20 PUSH2 0x22F8 DUP6 DUP3 DUP7 ADD PUSH2 0x2280 JUMP JUMPDEST SWAP2 POP POP SWAP3 POP SWAP3 SWAP1 POP JUMP JUMPDEST PUSH2 0x230B DUP2 PUSH2 0x2157 JUMP JUMPDEST DUP2 EQ PUSH2 0x2316 JUMPI PUSH1 0x0 DUP1 REVERT JUMPDEST POP JUMP JUMPDEST PUSH1 0x0 DUP2 CALLDATALOAD SWAP1 POP PUSH2 0x2328 DUP2 PUSH2 0x2302 JUMP JUMPDEST SWAP3 SWAP2 POP POP JUMP JUMPDEST PUSH1 0x0 DUP1 PUSH1 0x40 DUP4 DUP6 SUB SLT ISZERO PUSH2 0x2345 JUMPI PUSH2 0x2344 PUSH2 0x1FB3 JUMP JUMPDEST JUMPDEST PUSH1 0x0 PUSH2 0x2353 DUP6 DUP3 DUP7 ADD PUSH2 0x2280 JUMP JUMPDEST SWAP3 POP POP PUSH1 0x20 PUSH2 0x2364 DUP6 DUP3 DUP7 ADD PUSH2 0x2319 JUMP JUMPDEST SWAP2 POP POP SWAP3 POP SWAP3 SWAP1 POP JUMP JUMPDEST PUSH2 0x2377 DUP2 PUSH2 0x2157 JUMP JUMPDEST DUP3 MSTORE POP POP JUMP JUMPDEST PUSH1 0x0 PUSH1 0x20 DUP3 ADD SWAP1 POP PUSH2 0x2392 PUSH1 0x0 DUP4 ADD DUP5 PUSH2 0x236E JUMP JUMPDEST SWAP3 SWAP2 POP POP JUMP JUMPDEST PUSH1 0x0 DUP1 REVERT JUMPDEST PUSH1 0x0 DUP1 REVERT JUMPDEST PUSH1 0x0 DUP1 REVERT JUMPDEST PUSH1 0x0 DUP1 DUP4 PUSH1 0x1F DUP5 ADD SLT PUSH2 0x23BD JUMPI PUSH2 0x23BC PUSH2 0x2398 JUMP JUMPDEST JUMPDEST DUP3 CALLDATALOAD SWAP1 POP PUSH8 0xFFFFFFFFFFFFFFFF DUP2 GT ISZERO PUSH2 0x23DA JUMPI PUSH2 0x23D9 PUSH2 0x239D JUMP JUMPDEST JUMPDEST PUSH1 0x20 DUP4 ADD SWAP2 POP DUP4 PUSH1 0x1 DUP3 MUL DUP4 ADD GT ISZERO PUSH2 0x23F6 JUMPI PUSH2 0x23F5 PUSH2 0x23A2 JUMP JUMPDEST JUMPDEST SWAP3 POP SWAP3 SWAP1 POP JUMP JUMPDEST PUSH1 0x0 DUP1 PUSH1 0x0 DUP1 PUSH1 0x60 DUP6 DUP8 SUB SLT ISZERO PUSH2 0x2417 JUMPI PUSH2 0x2416 PUSH2 0x1FB3 JUMP JUMPDEST JUMPDEST PUSH1 0x0 DUP6 ADD CALLDATALOAD PUSH8 0xFFFFFFFFFFFFFFFF DUP2 GT ISZERO PUSH2 0x2435 JUMPI PUSH2 0x2434 PUSH2 0x1FB8 JUMP JUMPDEST JUMPDEST PUSH2 0x2441 DUP8 DUP3 DUP9 ADD PUSH2 0x23A7 JUMP JUMPDEST SWAP5 POP SWAP5 POP POP PUSH1 0x20 PUSH2 0x2454 DUP8 DUP3 DUP9 ADD PUSH2 0x2319 JUMP JUMPDEST SWAP3 POP POP PUSH1 0x40 PUSH2 0x2465 DUP8 DUP3 DUP9 ADD PUSH2 0x2319 JUMP JUMPDEST SWAP2 POP POP SWAP3 SWAP6 SWAP2 SWAP5 POP SWAP3 POP JUMP JUMPDEST PUSH1 0x0 PUSH1 0x60 DUP3 ADD SWAP1 POP PUSH2 0x2486 PUSH1 0x0 DUP4 ADD DUP7 PUSH2 0x204E JUMP JUMPDEST PUSH2 0x2493 PUSH1 0x20 DUP4 ADD DUP6 PUSH2 0x2215 JUMP JUMPDEST PUSH2 0x24A0 PUSH1 0x40 DUP4 ADD DUP5 PUSH2 0x2215 JUMP JUMPDEST SWAP5 SWAP4 POP POP POP POP JUMP JUMPDEST PUSH2 0x24B1 DUP2 PUSH2 0x20F7 JUMP JUMPDEST DUP3 MSTORE POP POP JUMP JUMPDEST PUSH2 0x24C0 DUP2 PUSH2 0x2136 JUMP JUMPDEST DUP3 MSTORE POP POP JUMP JUMPDEST PUSH1 0x0 PUSH1 0xC0 DUP3 ADD SWAP1 POP PUSH2 0x24DB PUSH1 0x0 DUP4 ADD DUP10 PUSH2 0x2215 JUMP JUMPDEST PUSH2 0x24E8 PUSH1 0x20 DUP4 ADD DUP9 PUSH2 0x2215 JUMP JUMPDEST PUSH2 0x24F5 PUSH1 0x40 DUP4 ADD DUP8 PUSH2 0x24A8 JUMP JUMPDEST PUSH2 0x2502 PUSH1 0x60 DUP4 ADD DUP7 PUSH2 0x24B7 JUMP JUMPDEST PUSH2 0x250F PUSH1 0x80 DUP4 ADD DUP6 PUSH2 0x236E JUMP JUMPDEST PUSH2 0x251C PUSH1 0xA0 DUP4 ADD DUP5 PUSH2 0x204E JUMP JUMPDEST SWAP8 SWAP7 POP POP POP POP POP POP POP JUMP JUMPDEST PUSH1 0x0 PUSH1 0x20 DUP3 ADD SWAP1 POP PUSH2 0x253C PUSH1 0x0 DUP4 ADD DUP5 PUSH2 0x24B7 JUMP JUMPDEST SWAP3 SWAP2 POP POP JUMP JUMPDEST PUSH1 0x0 PUSH1 0x1F NOT PUSH1 0x1F DUP4 ADD AND SWAP1 POP SWAP2 SWAP1 POP JUMP JUMPDEST PUSH32 0x4E487B7100000000000000000000000000000000000000000000000000000000 PUSH1 0x0 MSTORE PUSH1 0x41 PUSH1 0x4 MSTORE PUSH1 0x24 PUSH1 0x0 REVERT JUMPDEST PUSH2 0x258B DUP3 PUSH2 0x2542 JUMP JUMPDEST DUP2 ADD DUP2 DUP2 LT PUSH8 0xFFFFFFFFFFFFFFFF DUP3 GT OR ISZERO PUSH2 0x25AA JUMPI PUSH2 0x25A9 PUSH2 0x2553 JUMP JUMPDEST JUMPDEST DUP1 PUSH1 0x40 MSTORE POP POP POP JUMP JUMPDEST PUSH1 0x0 PUSH2 0x25BD PUSH2 0x1FA9 JUMP JUMPDEST SWAP1 POP PUSH2 0x25C9 DUP3 DUP3 PUSH2 0x2582 JUMP JUMPDEST SWAP2 SWAP1 POP JUMP JUMPDEST PUSH1 0x0 PUSH8 0xFFFFFFFFFFFFFFFF DUP3 GT ISZERO PUSH2 0x25E9 JUMPI PUSH2 0x25E8 PUSH2 0x2553 JUMP JUMPDEST JUMPDEST PUSH1 0x20 DUP3 MUL SWAP1 POP SWAP2 SWAP1 POP JUMP JUMPDEST PUSH1 0x0 PUSH2 0x2607 PUSH2 0x2602 DUP5 PUSH2 0x25CE JUMP JUMPDEST PUSH2 0x25B3 JUMP JUMPDEST SWAP1 POP DUP1 PUSH1 0x20 DUP5 MUL DUP4 ADD DUP6 DUP2 GT ISZERO PUSH2 0x2621 JUMPI PUSH2 0x2620 PUSH2 0x23A2 JUMP JUMPDEST JUMPDEST DUP4 JUMPDEST DUP2 DUP2 LT ISZERO PUSH2 0x264A JUMPI DUP1 PUSH2 0x2636 DUP9 DUP3 PUSH2 0x2319 JUMP JUMPDEST DUP5 MSTORE PUSH1 0x20 DUP5 ADD SWAP4 POP POP PUSH1 0x20 DUP2 ADD SWAP1 POP PUSH2 0x2623 JUMP JUMPDEST POP POP POP SWAP4 SWAP3 POP POP POP JUMP JUMPDEST PUSH1 0x0 DUP3 PUSH1 0x1F DUP4 ADD SLT PUSH2 0x2669 JUMPI PUSH2 0x2668 PUSH2 0x2398 JUMP JUMPDEST JUMPDEST PUSH1 0xA PUSH2 0x2676 DUP5 DUP3 DUP6 PUSH2 0x25F4 JUMP JUMPDEST SWAP2 POP POP SWAP3 SWAP2 POP POP JUMP JUMPDEST PUSH1 0x0 PUSH2 0x140 DUP3 DUP5 SUB SLT ISZERO PUSH2 0x2696 JUMPI PUSH2 0x2695 PUSH2 0x1FB3 JUMP JUMPDEST JUMPDEST PUSH1 0x0 PUSH2 0x26A4 DUP5 DUP3 DUP6 ADD PUSH2 0x2654 JUMP JUMPDEST SWAP2 POP POP SWAP3 SWAP2 POP POP JUMP JUMPDEST PUSH1 0x0 PUSH1 0x60 DUP3 ADD SWAP1 POP PUSH2 0x26C2 PUSH1 0x0 DUP4 ADD DUP7 PUSH2 0x2215 JUMP JUMPDEST PUSH2 0x26CF PUSH1 0x20 DUP4 ADD DUP6 PUSH2 0x2215 JUMP JUMPDEST PUSH2 0x26DC PUSH1 0x40 DUP4 ADD DUP5 PUSH2 0x24A8 JUMP JUMPDEST SWAP5 SWAP4 POP POP POP POP JUMP JUMPDEST PUSH1 0x0 PUSH1 0x40 DUP3 ADD SWAP1 POP PUSH2 0x26F9 PUSH1 0x0 DUP4 ADD DUP6 PUSH2 0x236E JUMP JUMPDEST PUSH2 0x2706 PUSH1 0x20 DUP4 ADD DUP5 PUSH2 0x236E JUMP JUMPDEST SWAP4 SWAP3 POP POP POP JUMP JUMPDEST PUSH2 0x2716 DUP2 PUSH2 0x20DB JUMP JUMPDEST DUP2 EQ PUSH2 0x2721 JUMPI PUSH1 0x0 DUP1 REVERT JUMPDEST POP JUMP JUMPDEST PUSH1 0x0 DUP2 CALLDATALOAD SWAP1 POP PUSH2 0x2733 DUP2 PUSH2 0x270D JUMP JUMPDEST SWAP3 SWAP2 POP POP JUMP JUMPDEST PUSH1 0x0 PUSH1 0x20 DUP3 DUP5 SUB SLT ISZERO PUSH2 0x274F JUMPI PUSH2 0x274E PUSH2 0x1FB3 JUMP JUMPDEST JUMPDEST PUSH1 0x0 PUSH2 0x275D DUP5 DUP3 DUP6 ADD PUSH2 0x2724 JUMP JUMPDEST SWAP2 POP POP SWAP3 SWAP2 POP POP JUMP JUMPDEST PUSH1 0x0 DUP3 DUP3 MSTORE PUSH1 0x20 DUP3 ADD SWAP1 POP SWAP3 SWAP2 POP POP JUMP JUMPDEST PUSH32 0x477561726469616E50726F78793A206E6F206163746976652067756172640000 PUSH1 0x0 DUP3 ADD MSTORE POP JUMP JUMPDEST PUSH1 0x0 PUSH2 0x27AD PUSH1 0x1E DUP4 PUSH2 0x2766 JUMP JUMPDEST SWAP2 POP PUSH2 0x27B8 DUP3 PUSH2 0x2777 JUMP JUMPDEST PUSH1 0x20 DUP3 ADD SWAP1 POP SWAP2 SWAP1 POP JUMP JUMPDEST PUSH1 0x0 PUSH1 0x20 DUP3 ADD SWAP1 POP DUP2 DUP2 SUB PUSH1 0x0 DUP4 ADD MSTORE PUSH2 0x27DC DUP2 PUSH2 0x27A0 JUMP JUMPDEST SWAP1 POP SWAP2 SWAP1 POP JUMP JUMPDEST PUSH32 0x4E487B7100000000000000000000000000000000000000000000000000000000 PUSH1 0x0 MSTORE PUSH1 0x11 PUSH1 0x4 MSTORE PUSH1 0x24 PUSH1 0x0 REVERT JUMPDEST PUSH1 0x0 PUSH2 0x281D DUP3 PUSH2 0x2157 JUMP JUMPDEST SWAP2 POP PUSH1 0x0 DUP3 SUB PUSH2 0x2830 JUMPI PUSH2 0x282F PUSH2 0x27E3 JUMP JUMPDEST JUMPDEST PUSH1 0x1 DUP3 SUB SWAP1 POP SWAP2 SWAP1 POP JUMP JUMPDEST PUSH32 0x477561726469616E50726F78793A207A65726F20616464726573730000000000 PUSH1 0x0 DUP3 ADD MSTORE POP JUMP JUMPDEST PUSH1 0x0 PUSH2 0x2871 PUSH1 0x1B DUP4 PUSH2 0x2766 JUMP JUMPDEST SWAP2 POP PUSH2 0x287C DUP3 PUSH2 0x283B JUMP JUMPDEST PUSH1 0x20 DUP3 ADD SWAP1 POP SWAP2 SWAP1 POP JUMP JUMPDEST PUSH1 0x0 PUSH1 0x20 DUP3 ADD SWAP1 POP DUP2 DUP2 SUB PUSH1 0x0 DUP4 ADD MSTORE PUSH2 0x28A0 DUP2 PUSH2 0x2864 JUMP JUMPDEST SWAP1 POP SWAP2 SWAP1 POP JUMP JUMPDEST PUSH1 0x0 PUSH2 0x28B2 DUP3 PUSH2 0x2157 JUMP JUMPDEST SWAP2 POP PUSH32 0xFFFFFFFFFFFFFFFFFFFFFFFFFFFFFFFFFFFFFFFFFFFFFFFFFFFFFFFFFFFFFFFF DUP3 SUB PUSH2 0x28E4 JUMPI PUSH2 0x28E3 PUSH2 0x27E3 JUMP JUMPDEST JUMPDEST PUSH1 0x1 DUP3 ADD SWAP1 POP SWAP2 SWAP1 POP JUMP JUMPDEST PUSH1 0x0 DUP2 SWAP1 POP SWAP2 SWAP1 POP JUMP JUMPDEST PUSH1 0x0 DUP2 SWAP1 POP SWAP2 SWAP1 POP JUMP JUMPDEST PUSH1 0x0 PUSH2 0x291E PUSH2 0x2919 PUSH2 0x2914 DUP5 PUSH2 0x28EF JUMP JUMPDEST PUSH2 0x28F9 JUMP JUMPDEST PUSH2 0x20F7 JUMP JUMPDEST SWAP1 POP SWAP2 SWAP1 POP JUMP JUMPDEST PUSH2 0x292E DUP2 PUSH2 0x2903 JUMP JUMPDEST DUP3 MSTORE POP POP JUMP JUMPDEST PUSH1 0x0 DUP2 SWAP1 POP SWAP2 SWAP1 POP JUMP JUMPDEST PUSH1 0x0 PUSH2 0x2959 PUSH2 0x2954 PUSH2 0x294F DUP5 PUSH2 0x2934 JUMP JUMPDEST PUSH2 0x28F9 JUMP JUMPDEST PUSH2 0x20DB JUMP JUMPDEST SWAP1 POP SWAP2 SWAP1 POP JUMP JUMPDEST PUSH2 0x2969 DUP2 PUSH2 0x293E JUMP JUMPDEST DUP3 MSTORE POP POP JUMP JUMPDEST PUSH1 0x0 PUSH1 0x40 DUP3 ADD SWAP1 POP PUSH2 0x2984 PUSH1 0x0 DUP4 ADD DUP6 PUSH2 0x2925 JUMP JUMPDEST PUSH2 0x2991 PUSH1 0x20 DUP4 ADD DUP5 PUSH2 0x2960 JUMP JUMPDEST SWAP4 SWAP3 POP POP POP JUMP JUMPDEST PUSH32 0x506F6C6B6153656E74696E656C3A205245454E5452414E43595F424C4F434B45 PUSH1 0x0 DUP3 ADD MSTORE PUSH32 0x4400000000000000000000000000000000000000000000000000000000000000 PUSH1 0x20 DUP3 ADD MSTORE POP JUMP JUMPDEST PUSH1 0x0 PUSH2 0x29F4 PUSH1 0x21 DUP4 PUSH2 0x2766 JUMP JUMPDEST SWAP2 POP PUSH2 0x29FF DUP3 PUSH2 0x2998 JUMP JUMPDEST PUSH1 0x40 DUP3 ADD SWAP1 POP SWAP2 SWAP1 POP JUMP JUMPDEST PUSH1 0x0 PUSH1 0x20 DUP3 ADD SWAP1 POP DUP2 DUP2 SUB PUSH1 0x0 DUP4 ADD MSTORE PUSH2 0x2A23 DUP2 PUSH2 0x29E7 JUMP JUMPDEST SWAP1 POP SWAP2 SWAP1 POP JUMP JUMPDEST PUSH32 0x4E487B7100000000000000000000000000000000000000000000000000000000 PUSH1 0x0 MSTORE PUSH1 0x32 PUSH1 0x4 MSTORE PUSH1 0x24 PUSH1 0x0 REVERT JUMPDEST PUSH1 0x0 DUP3 SWAP1 POP SWAP3 SWAP2 POP POP JUMP JUMPDEST PUSH1 0x0 DUP3 DUP3 SHL SWAP1 POP SWAP3 SWAP2 POP POP JUMP JUMPDEST PUSH1 0x0 PUSH2 0x2A7D DUP4 DUP4 PUSH2 0x2A59 JUMP JUMPDEST DUP3 PUSH2 0x2A88 DUP2 CALLDATALOAD PUSH2 0x1FBD JUMP JUMPDEST SWAP3 POP PUSH1 0x4 DUP3 LT ISZERO PUSH2 0x2AC8 JUMPI PUSH2 0x2AC3 PUSH32 0xFFFFFFFF00000000000000000000000000000000000000000000000000000000 DUP4 PUSH1 0x4 SUB PUSH1 0x8 MUL PUSH2 0x2A64 JUMP JUMPDEST DUP4 AND SWAP3 POP JUMPDEST POP POP SWAP3 SWAP2 POP POP JUMP JUMPDEST PUSH1 0x0 PUSH2 0x2ADB DUP3 PUSH2 0x2157 JUMP JUMPDEST SWAP2 POP PUSH2 0x2AE6 DUP4 PUSH2 0x2157 JUMP JUMPDEST SWAP3 POP DUP3 DUP3 SUB SWAP1 POP DUP2 DUP2 GT ISZERO PUSH2 0x2AFE JUMPI PUSH2 0x2AFD PUSH2 0x27E3 JUMP JUMPDEST JUMPDEST SWAP3 SWAP2 POP POP JUMP JUMPDEST PUSH1 0x0 PUSH2 0x2B0F DUP3 PUSH2 0x2157 JUMP JUMPDEST SWAP2 POP PUSH2 0x2B1A DUP4 PUSH2 0x2157 JUMP JUMPDEST SWAP3 POP DUP3 DUP3 MUL PUSH2 0x2B28 DUP2 PUSH2 0x2157 JUMP JUMPDEST SWAP2 POP DUP3 DUP3 DIV DUP5 EQ DUP4 ISZERO OR PUSH2 0x2B3F JUMPI PUSH2 0x2B3E PUSH2 0x27E3 JUMP JUMPDEST JUMPDEST POP SWAP3 SWAP2 POP POP JUMP JUMPDEST PUSH32 0x4E487B7100000000000000000000000000000000000000000000000000000000 PUSH1 0x0 MSTORE PUSH1 0x12 PUSH1 0x4 MSTORE PUSH1 0x24 PUSH1 0x0 REVERT JUMPDEST PUSH1 0x0 PUSH2 0x2B80 DUP3 PUSH2 0x2157 JUMP JUMPDEST SWAP2 POP PUSH2 0x2B8B DUP4 PUSH2 0x2157 JUMP JUMPDEST SWAP3 POP DUP3 PUSH2 0x2B9B JUMPI PUSH2 0x2B9A PUSH2 0x2B46 JUMP JUMPDEST JUMPDEST DUP3 DUP3 DIV SWAP1 POP SWAP3 SWAP2 POP POP JUMP JUMPDEST PUSH1 0x0 PUSH2 0x2BB1 DUP3 PUSH2 0x2157 JUMP JUMPDEST SWAP2 POP PUSH2 0x2BBC DUP4 PUSH2 0x2157 JUMP JUMPDEST SWAP3 POP DUP3 DUP3 ADD SWAP1 POP DUP1 DUP3 GT ISZERO PUSH2 0x2BD4 JUMPI PUSH2 0x2BD3 PUSH2 0x27E3 JUMP JUMPDEST JUMPDEST SWAP3 SWAP2 POP POP JUMP JUMPDEST PUSH1 0x0 PUSH1 0xA SWAP1 POP SWAP2 SWAP1 POP JUMP JUMPDEST PUSH1 0x0 DUP2 SWAP1 POP SWAP3 SWAP2 POP POP JUMP JUMPDEST PUSH1 0x0 DUP2 SWAP1 POP SWAP2 SWAP1 POP JUMP JUMPDEST PUSH1 0x0 PUSH2 0x2C06 DUP4 DUP4 PUSH2 0x2161 JUMP JUMPDEST PUSH1 0x20 DUP4 ADD SWAP1 POP SWAP3 SWAP2 POP POP JUMP JUMPDEST PUSH1 0x0 PUSH1 0x20 DUP3 ADD SWAP1 POP SWAP2 SWAP1 POP JUMP JUMPDEST PUSH2 0x2C28 DUP2 PUSH2 0x2BDA JUMP JUMPDEST PUSH2 0x2C32 DUP2 DUP5 PUSH2 0x2BE5 JUMP JUMPDEST SWAP3 POP PUSH2 0x2C3D DUP3 PUSH2 0x2BF0 JUMP JUMPDEST DUP1 PUSH1 0x0 JUMPDEST DUP4 DUP2 LT ISZERO PUSH2 0x2C6E JUMPI DUP2 MLOAD PUSH2 0x2C55 DUP8 DUP3 PUSH2 0x2BFA JUMP JUMPDEST SWAP7 POP PUSH2 0x2C60 DUP4 PUSH2 0x2C12 JUMP JUMPDEST SWAP3 POP POP PUSH1 0x1 DUP2 ADD SWAP1 POP PUSH2 0x2C41 JUMP JUMPDEST POP POP POP POP POP POP JUMP JUMPDEST PUSH1 0x0 PUSH2 0x140 DUP3 ADD SWAP1 POP PUSH2 0x2C8C PUSH1 0x0 DUP4 ADD DUP5 PUSH2 0x2C1F JUMP JUMPDEST SWAP3 SWAP2 POP POP JUMP JUMPDEST PUSH1 0x0 DUP2 MLOAD SWAP1 POP SWAP2 SWAP1 POP JUMP JUMPDEST PUSH1 0x0 DUP2 SWAP1 POP SWAP3 SWAP2 POP POP JUMP JUMPDEST PUSH1 0x0 JUMPDEST DUP4 DUP2 LT ISZERO PUSH2 0x2CC6 JUMPI DUP1 DUP3 ADD MLOAD DUP2 DUP5 ADD MSTORE PUSH1 0x20 DUP2 ADD SWAP1 POP PUSH2 0x2CAB JUMP JUMPDEST PUSH1 0x0 DUP5 DUP5 ADD MSTORE POP POP POP POP JUMP JUMPDEST PUSH1 0x0 PUSH2 0x2CDD DUP3 PUSH2 0x2C92 JUMP JUMPDEST PUSH2 0x2CE7 DUP2 DUP6 PUSH2 0x2C9D JUMP JUMPDEST SWAP4 POP PUSH2 0x2CF7 DUP2 DUP6 PUSH1 0x20 DUP7 ADD PUSH2 0x2CA8 JUMP JUMPDEST DUP1 DUP5 ADD SWAP2 POP POP SWAP3 SWAP2 POP POP JUMP JUMPDEST PUSH1 0x0 PUSH2 0x2D0F DUP3 DUP5 PUSH2 0x2CD2 JUMP JUMPDEST SWAP2 POP DUP2 SWAP1 POP SWAP3 SWAP2 POP POP JUMP JUMPDEST PUSH1 0x0 PUSH1 0x40 DUP3 ADD SWAP1 POP PUSH2 0x2D2F PUSH1 0x0 DUP4 ADD DUP6 PUSH2 0x24A8 JUMP JUMPDEST PUSH2 0x2D3C PUSH1 0x20 DUP4 ADD DUP5 PUSH2 0x2215 JUMP JUMPDEST SWAP4 SWAP3 POP POP POP JUMP JUMPDEST PUSH32 0x506F6C6B6153656E74696E656C3A20435249544943414C5F5448524541545F42 PUSH1 0x0 DUP3 ADD MSTORE PUSH32 0x4C4F434B45440000000000000000000000000000000000000000000000000000 PUSH1 0x20 DUP3 ADD MSTORE POP JUMP JUMPDEST PUSH1 0x0 PUSH2 0x2D9F PUSH1 0x26 DUP4 PUSH2 0x2766 JUMP JUMPDEST SWAP2 POP PUSH2 0x2DAA DUP3 PUSH2 0x2D43 JUMP JUMPDEST PUSH1 0x40 DUP3 ADD SWAP1 POP SWAP2 SWAP1 POP JUMP JUMPDEST PUSH1 0x0 PUSH1 0x20 DUP3 ADD SWAP1 POP DUP2 DUP2 SUB PUSH1 0x0 DUP4 ADD MSTORE PUSH2 0x2DCE DUP2 PUSH2 0x2D92 JUMP JUMPDEST SWAP1 POP SWAP2 SWAP1 POP JUMP JUMPDEST PUSH1 0x0 PUSH1 0x40 DUP3 ADD SWAP1 POP PUSH2 0x2DEA PUSH1 0x0 DUP4 ADD DUP6 PUSH2 0x2215 JUMP JUMPDEST PUSH2 0x2DF7 PUSH1 0x20 DUP4 ADD DUP5 PUSH2 0x2215 JUMP JUMPDEST SWAP4 SWAP3 POP POP POP JUMP JUMPDEST PUSH1 0x0 DUP2 PUSH1 0x60 SHL SWAP1 POP SWAP2 SWAP1 POP JUMP JUMPDEST PUSH1 0x0 PUSH2 0x2E16 DUP3 PUSH2 0x2DFE JUMP JUMPDEST SWAP1 POP SWAP2 SWAP1 POP JUMP JUMPDEST PUSH1 0x0 PUSH2 0x2E28 DUP3 PUSH2 0x2E0B JUMP JUMPDEST SWAP1 POP SWAP2 SWAP1 POP JUMP JUMPDEST PUSH2 0x2E40 PUSH2 0x2E3B DUP3 PUSH2 0x2136 JUMP JUMPDEST PUSH2 0x2E1D JUMP JUMPDEST DUP3 MSTORE POP POP JUMP JUMPDEST PUSH1 0x0 DUP2 SWAP1 POP SWAP2 SWAP1 POP JUMP JUMPDEST PUSH2 0x2E61 PUSH2 0x2E5C DUP3 PUSH2 0x2157 JUMP JUMPDEST PUSH2 0x2E46 JUMP JUMPDEST DUP3 MSTORE POP POP JUMP JUMPDEST PUSH1 0x0 PUSH2 0x2E73 DUP3 DUP7 PUSH2 0x2E2F JUMP JUMPDEST PUSH1 0x14 DUP3 ADD SWAP2 POP PUSH2 0x2E83 DUP3 DUP6 PUSH2 0x2E50 JUMP JUMPDEST PUSH1 0x20 DUP3 ADD SWAP2 POP PUSH2 0x2E93 DUP3 DUP5 PUSH2 0x2E50 JUMP JUMPDEST PUSH1 0x20 DUP3 ADD SWAP2 POP DUP2 SWAP1 POP SWAP5 SWAP4 POP POP POP POP JUMP JUMPDEST PUSH32 0x477561726469616E50726F78793A20696E76616C6964207468726573686F6C64 PUSH1 0x0 DUP3 ADD MSTORE POP JUMP JUMPDEST PUSH1 0x0 PUSH2 0x2EDA PUSH1 0x20 DUP4 PUSH2 0x2766 JUMP JUMPDEST SWAP2 POP PUSH2 0x2EE5 DUP3 PUSH2 0x2EA4 JUMP JUMPDEST PUSH1 0x20 DUP3 ADD SWAP1 POP SWAP2 SWAP1 POP JUMP JUMPDEST PUSH1 0x0 PUSH1 0x20 DUP3 ADD SWAP1 POP DUP2 DUP2 SUB PUSH1 0x0 DUP4 ADD MSTORE PUSH2 0x2F09 DUP2 PUSH2 0x2ECD JUMP JUMPDEST SWAP1 POP SWAP2 SWAP1 POP JUMP JUMPDEST PUSH1 0x0 PUSH1 0x40 DUP3 ADD SWAP1 POP PUSH2 0x2F25 PUSH1 0x0 DUP4 ADD DUP6 PUSH2 0x24B7 JUMP JUMPDEST PUSH2 0x2F32 PUSH1 0x20 DUP4 ADD DUP5 PUSH2 0x223F JUMP JUMPDEST SWAP4 SWAP3 POP POP POP JUMP INVALID LOG2 PUSH5 0x6970667358 0x22 SLT KECCAK256 0xDE DUP9 0xEE CALLDATASIZE PUSH8 0x11E5020668972B67 GT 0xB7 SSTORE 0xE 0xDB MSTORE DELEGATECALL SELFBALANCE PUSH10 0xC7145058C3A358443570 PUSH5 0x736F6C6343 STOP ADDMOD XOR STOP CALLER "
        },
        "methodIdentifiers": {
          "DEFAULT_ADMIN_ROLE()": "a217fddf",
          "GUARDIAN_ROLE()": "24ea54f4",
          "blockCumulativeValue(address,uint256)": "4f95ceed",
          "blockWithdrawals(address,uint256)": "35aa647c",
          "classifyView(uint256[10])": "b104520b",
          "criticalCount()": "d7067df7",
          "deployBlock()": "a3ec191a",
          "emergencyPause()": "51858e27",
          "emergencyUnpause()": "4a4e3bd5",
          "firstSeen(address)": "e326ac43",
          "getReport(bytes32)": "171c4f11",
          "getRoleAdmin(bytes32)": "248a9ca3",
          "getStats()": "c59d4847",
          "globalThreshold()": "1c80291e",
          "grantRole(bytes32,address)": "2f2ff15d",
          "guard(bytes,uint256,uint256)": "80a16431",
          "guardComplete()": "164459a3",
          "hasRole(bytes32,address)": "91d14854",
          "paused()": "5c975abb",
          "protocolRegistry(address)": "3823be00",
          "registerProtocol(address)": "260e40d2",
          "renounceRole(bytes32,address)": "36568abe",
          "revokeRole(bytes32,address)": "d547741f",
          "sentinelEngine()": "9594e37b",
          "setSentinelEngine(address)": "90265e24",
          "setThreshold(uint8)": "e5a98603",
          "supportsInterface(bytes4)": "01ffc9a7",
          "threatLogs(bytes32)": "87b94d7f",
          "totalBlocked()": "f11929d0",
          "totalScanned()": "b603be00"
        }
      }
    }
  }
}