{
  "contracts/VulnerableVault.sol": {
    "VulnerableVault": {
      "abi": [
        {
          "anonymous": false,
          "inputs": [
            {
              "indexed": true,
              "internalType": "address",
              "name": "user",
              "type": "address"
            },
            {
              "indexed": false,
              "internalType": "uint256",
              "name": "amount",
              "type": "uint256"
            }
          ],
          "name": "Deposited",
          "type": "event"
        },
        {
          "anonymous": false,
          "inputs": [
            {
              "indexed": true,
              "internalType": "address",
              "name": "user",
              "type": "address"
            },
            {
              "indexed": false,
              "internalType": "uint256",
              "name": "amount",
              "type": "uint256"
            }
          ],
          "name": "Withdrawn",
          "type": "event"
        },
        {
          "inputs": [
            {
              "internalType": "address",
              "name": "",
              "type": "address"
            }
          ],
          "name": "balances",
          "outputs": [
            {
              "internalType": "uint256",
              "name": "",
              "type": "uint256"
            }
          ],
          "stateMutability": "view",
          "type": "function"
        },
        {
          "inputs": [],
          "name": "deposit",
          "outputs": [],
          "stateMutability": "payable",
          "type": "function"
        },
        {
          "inputs": [
            {
              "internalType": "address",
              "name": "user",
              "type": "address"
            }
          ],
          "name": "getBalance",
          "outputs": [
            {
              "internalType": "uint256",
              "name": "",
              "type": "uint256"
            }
          ],
          "stateMutability": "view",
          "type": "function"
        },
        {
          "inputs": [],
          "name": "totalDeposits",
          "outputs": [
            {
              "internalType": "uint256",
              "name": "",
              "type": "uint256"
            }
          ],
          "stateMutability": "view",
          "type": "function"
        },
        {
          "inputs": [
            {
              "internalType": "uint256",
              "name": "amount",
              "type": "uint256"
            }
          ],
          "name": "withdraw",
          "outputs": [],
          "stateMutability": "nonpayable",
          "type": "function"
        },
        {
          "stateMutability": "payable",
          "type": "receive"
        }
      ],
      "evm": {
        "bytecode": {
          "linkReferences": {},
          "object": "608060405234801561001057600080fd5b50610858806100206000396000f3fe60806040526004361061004e5760003560e01c806327e235e3146100c75780632e1a7d4d146101045780637d8820971461012d578063d0e30db014610158578063f8b2cb4f14610162576100c2565b366100c257346000803373ffffffffffffffffffffffffffffffffffffffff1673ffffffffffffffffffffffffffffffffffffffff16815260200190815260200160002060008282546100a1919061051a565b9250508190555034600160008282546100ba919061051a565b925050819055005b600080fd5b3480156100d357600080fd5b506100ee60048036038101906100e991906105b1565b61019f565b6040516100fb91906105ed565b60405180910390f35b34801561011057600080fd5b5061012b60048036038101906101269190610634565b6101b7565b005b34801561013957600080fd5b50610142610392565b60405161014f91906105ed565b60405180910390f35b610160610398565b005b34801561016e57600080fd5b50610189600480360381019061018491906105b1565b610499565b60405161019691906105ed565b60405180910390f35b60006020528060005260406000206000915090505481565b806000803373ffffffffffffffffffffffffffffffffffffffff1673ffffffffffffffffffffffffffffffffffffffff168152602001908152602001600020541015610238576040517f08c379a000000000000000000000000000000000000000000000000000000000815260040161022f906106e4565b60405180910390fd5b60003373ffffffffffffffffffffffffffffffffffffffff168260405161025e90610735565b60006040518083038185875af1925050503d806000811461029b576040519150601f19603f3d011682016040523d82523d6000602084013e6102a0565b606091505b50509050806102e4576040517f08c379a00000000000000000000000000000000000000000000000000000000081526004016102db90610796565b60405180910390fd5b816000803373ffffffffffffffffffffffffffffffffffffffff1673ffffffffffffffffffffffffffffffffffffffff16815260200190815260200160002060008282540392505081905550816001600082825403925050819055503373ffffffffffffffffffffffffffffffffffffffff167f7084f5476618d8e60b11ef0d7d3f06914655adb8793e28ff7f018d4c76d505d58360405161038691906105ed565b60405180910390a25050565b60015481565b600034116103db576040517f08c379a00000000000000000000000000000000000000000000000000000000081526004016103d290610802565b60405180910390fd5b346000803373ffffffffffffffffffffffffffffffffffffffff1673ffffffffffffffffffffffffffffffffffffffff1681526020019081526020016000206000828254610429919061051a565b925050819055503460016000828254610442919061051a565b925050819055503373ffffffffffffffffffffffffffffffffffffffff167f2da466a7b24304f47e87fa2e1e5a81b9831ce54fec19055ce277ca2f39ba42c43460405161048f91906105ed565b60405180910390a2565b60008060008373ffffffffffffffffffffffffffffffffffffffff1673ffffffffffffffffffffffffffffffffffffffff168152602001908152602001600020549050919050565b6000819050919050565b7f4e487b7100000000000000000000000000000000000000000000000000000000600052601160045260246000fd5b6000610525826104e1565b9150610530836104e1565b9250828201905080821115610548576105476104eb565b5b92915050565b600080fd5b600073ffffffffffffffffffffffffffffffffffffffff82169050919050565b600061057e82610553565b9050919050565b61058e81610573565b811461059957600080fd5b50565b6000813590506105ab81610585565b92915050565b6000602082840312156105c7576105c661054e565b5b60006105d58482850161059c565b91505092915050565b6105e7816104e1565b82525050565b600060208201905061060260008301846105de565b92915050565b610611816104e1565b811461061c57600080fd5b50565b60008135905061062e81610608565b92915050565b60006020828403121561064a5761064961054e565b5b60006106588482850161061f565b91505092915050565b600082825260208201905092915050565b7f56756c6e657261626c655661756c743a20696e73756666696369656e7420626160008201527f6c616e6365000000000000000000000000000000000000000000000000000000602082015250565b60006106ce602583610661565b91506106d982610672565b604082019050919050565b600060208201905081810360008301526106fd816106c1565b9050919050565b600081905092915050565b50565b600061071f600083610704565b915061072a8261070f565b600082019050919050565b600061074082610712565b9150819050919050565b7f56756c6e657261626c655661756c743a207472616e73666572206661696c6564600082015250565b6000610780602083610661565b915061078b8261074a565b602082019050919050565b600060208201905081810360008301526107af81610773565b9050919050565b7f56756c6e657261626c655661756c743a207a65726f206465706f736974000000600082015250565b60006107ec601d83610661565b91506107f7826107b6565b602082019050919050565b6000602082019050818103600083015261081b816107df565b905091905056fea26469706673582212203812da7b4d85f0f5dce3b64277de89223475ae61a2c26de539b8f6fb51ef182a64736f6c63430008180033",
          "opcodes": "PUSH1 0x80 PUSH1 0x40 MSTORE CALLVALUE DUP1 ISZERO PUSH2 0x10 JUMPI PUSH1 0x0 DUP1 REVERT JUMPDEST POP PUSH2 0x858 DUP1 PUSH2 0x20 PUSH1 0x0 CODECOPY PUSH1 0x0 RETURN INVALID PUSH1 0x80 PUSH1 0x40 MSTORE PUSH1 0x4 CALLDATASIZE LT PUSH2 0x4E JUMPI PUSH1 0x0 CALLDATALOAD PUSH1 0xE0 SHR DUP1 PUSH4 0x27E235E3 EQ PUSH2 0xC7 JUMPI DUP1 PUSH4 0x2E1A7D4D EQ PUSH2 0x104 JUMPI DUP1 PUSH4 0x7D882097 EQ PUSH2 0x12D JUMPI DUP1 PUSH4 0xD0E30DB0 EQ PUSH2 0x158 JUMPI DUP1 PUSH4 0xF8B2CB4F EQ PUSH2 0x162 JUMPI PUSH2 0xC2 JUMP JUMPDEST CALLDATASIZE PUSH2 0xC2 JUMPI CALLVALUE PUSH1 0x0 DUP1 CALLER PUSH20 0xFFFFFFFFFFFFFFFFFFFFFFFFFFFFFFFFFFFFFFFF AND PUSH20 0xFFFFFFFFFFFFFFFFFFFFFFFFFFFFFFFFFFFFFFFF AND DUP2 MSTORE PUSH1 0x20 ADD SWAP1 DUP2 MSTORE PUSH1 0x20 ADD PUSH1 0x0 KECCAK256 PUSH1 0x0 DUP3 DUP3 SLOAD PUSH2 0xA1 SWAP2 SWAP1 PUSH2 0x51A JUMP JUMPDEST SWAP3 POP POP DUP2 SWAP1 SSTORE POP CALLVALUE PUSH1 0x1 PUSH1 0x0 DUP3 DUP3 SLOAD PUSH2 0xBA SWAP2 SWAP1 PUSH2 0x51A JUMP JUMPDEST SWAP3 POP POP DUP2 SWAP1 SSTORE STOP JUMPDEST PUSH1 0x0 DUP1 REVERT JUMPDEST CALLVALUE DUP1 ISZERO PUSH2 0xD3 JUMPI PUSH1 0x0 DUP1 REVERT JUMPDEST POP PUSH2 0xEE PUSH1 0x4 DUP1 CALLDATASIZE SUB DUP2 ADD SWAP1 PUSH2 0xE9 SWAP2 SWAP1 PUSH2 0x5B1 JUMP JUMPDEST PUSH2 0x19F JUMP JUMPDEST PUSH1 0x40 MLOAD PUSH2 0xFB SWAP2 SWAP1 PUSH2 0x5ED JUMP JUMPDEST PUSH1 0x40 MLOAD DUP1 SWAP2 SUB SWAP1 RETURN JUMPDEST CALLVALUE DUP1 ISZERO PUSH2 0x110 JUMPI PUSH1 0x0 DUP1 REVERT JUMPDEST POP PUSH2 0x12B PUSH1 0x4 DUP1 CALLDATASIZE SUB DUP2 ADD SWAP1 PUSH2 0x126 SWAP2 SWAP1 PUSH2 0x634 JUMP JUMPDEST PUSH2 0x1B7 JUMP JUMPDEST STOP JUMPDEST CALLVALUE DUP1 ISZERO PUSH2 0x139 JUMPI PUSH1 0x0 DUP1 REVERT JUMPDEST POP PUSH2 0x142 PUSH2 0x392 JUMP JUMPDEST PUSH1 0x40 MLOAD PUSH2 0x14F SWAP2 SWAP1 PUSH2 0x5ED JUMP JUMPDEST PUSH1 0x40 MLOAD DUP1 SWAP2 SUB SWAP1 RETURN JUMPDEST PUSH2 0x160 PUSH2 0x398 JUMP JUMPDEST STOP JUMPDEST CALLVALUE DUP1 ISZERO PUSH2 0x16E JUMPI PUSH1 0x0 DUP1 REVERT JUMPDEST POP PUSH2 0x189 PUSH1 0x4 DUP1 CALLDATASIZE SUB DUP2 ADD SWAP1 PUSH2 0x184 SWAP2 SWAP1 PUSH2 0x5B1 JUMP JUMPDEST PUSH2 0x499 JUMP JUMPDEST PUSH1 0x40 MLOAD PUSH2 0x196 SWAP2 SWAP1 PUSH2 0x5ED JUMP JUMPDEST PUSH1 0x40 MLOAD DUP1 SWAP2 SUB SWAP1 RETURN JUMPDEST PUSH1 0x0 PUSH1 0x20 MSTORE DUP1 PUSH1 0x0 MSTORE PUSH1 0x40 PUSH1 0x0 KECCAK256 PUSH1 0x0 SWAP2 POP SWAP1 POP SLOAD DUP2 JUMP JUMPDEST DUP1 PUSH1 0x0 DUP1 CALLER PUSH20 0xFFFFFFFFFFFFFFFFFFFFFFFFFFFFFFFFFFFFFFFF AND PUSH20 0xFFFFFFFFFFFFFFFFFFFFFFFFFFFFFFFFFFFFFFFF AND DUP2 MSTORE PUSH1 0x20 ADD SWAP1 DUP2 MSTORE PUSH1 0x20 ADD PUSH1 0x0 KECCAK256 SLOAD LT ISZERO PUSH2 0x238 JUMPI PUSH1 0x40 MLOAD PUSH32 0x8C379A000000000000000000000000000000000000000000000000000000000 DUP2 MSTORE PUSH1 0x4 ADD PUSH2 0x22F SWAP1 PUSH2 0x6E4 JUMP JUMPDEST PUSH1 0x40 MLOAD DUP1 SWAP2 SUB SWAP1 REVERT JUMPDEST PUSH1 0x0 CALLER PUSH20 0xFFFFFFFFFFFFFFFFFFFFFFFFFFFFFFFFFFFFFFFF AND DUP3 PUSH1 0x40 MLOAD PUSH2 0x25E SWAP1 PUSH2 0x735 JUMP JUMPDEST PUSH1 0x0 PUSH1 0x40 MLOAD DUP1 DUP4 SUB DUP2 DUP6 DUP8 GAS CALL SWAP3 POP POP POP RETURNDATASIZE DUP1 PUSH1 0x0 DUP2 EQ PUSH2 0x29B JUMPI PUSH1 0x40 MLOAD SWAP2 POP PUSH1 0x1F NOT PUSH1 0x3F RETURNDATASIZE ADD AND DUP3 ADD PUSH1 0x40 MSTORE RETURNDATASIZE DUP3 MSTORE RETURNDATASIZE PUSH1 0x0 PUSH1 0x20 DUP5 ADD RETURNDATACOPY PUSH2 0x2A0 JUMP JUMPDEST PUSH1 0x60 SWAP2 POP JUMPDEST POP POP SWAP1 POP DUP1 PUSH2 0x2E4 JUMPI PUSH1 0x40 MLOAD PUSH32 0x8C379A000000000000000000000000000000000000000000000000000000000 DUP2 MSTORE PUSH1 0x4 ADD PUSH2 0x2DB SWAP1 PUSH2 0x796 JUMP JUMPDEST PUSH1 0x40 MLOAD DUP1 SWAP2 SUB SWAP1 REVERT JUMPDEST DUP2 PUSH1 0x0 DUP1 CALLER PUSH20 0xFFFFFFFFFFFFFFFFFFFFFFFFFFFFFFFFFFFFFFFF AND PUSH20 0xFFFFFFFFFFFFFFFFFFFFFFFFFFFFFFFFFFFFFFFF AND DUP2 MSTORE PUSH1 0x20 ADD SWAP1 DUP2 MSTORE PUSH1 0x20 ADD PUSH1 0x0 KECCAK256 PUSH1 0x0 DUP3 DUP3 SLOAD SUB SWAP3 POP POP DUP2 SWAP1 SSTORE POP DUP2 PUSH1 0x1 PUSH1 0x0 DUP3 DUP3 SLOAD SUB SWAP3 POP POP DUP2 SWAP1 SSTORE POP CALLER PUSH20 0xFFFFFFFFFFFFFFFFFFFFFFFFFFFFFFFFFFFFFFFF AND PUSH32 0x7084F5476618D8E60B11EF0D7D3F06914655ADB8793E28FF7F018D4C76D505D5 DUP4 PUSH1 0x40 MLOAD PUSH2 0x386 SWAP2 SWAP1 PUSH2 0x5ED JUMP JUMPDEST PUSH1 0x40 MLOAD DUP1 SWAP2 SUB SWAP1 LOG2 POP POP JUMP JUMPDEST PUSH1 0x1 SLOAD DUP2 JUMP JUMPDEST PUSH1 0x0 CALLVALUE GT PUSH2 0x3DB JUMPI PUSH1 0x40 MLOAD PUSH32 0x8C379A000000000000000000000000000000000000000000000000000000000 DUP2 MSTORE PUSH1 0x4 ADD PUSH2 0x3D2 SWAP1 PUSH2 0x802 JUMP JUMPDEST PUSH1 0x40 MLOAD DUP1 SWAP2 SUB SWAP1 REVERT JUMPDEST CALLVALUE PUSH1 0x0 DUP1 CALLER PUSH20 0xFFFFFFFFFFFFFFFFFFFFFFFFFFFFFFFFFFFFFFFF AND PUSH20 0xFFFFFFFFFFFFFFFFFFFFFFFFFFFFFFFFFFFFFFFF AND DUP2 MSTORE PUSH1 0x20 ADD SWAP1 DUP2 MSTORE PUSH1 0x20 ADD PUSH1 0x0 KECCAK256 PUSH1 0x0 DUP3 DUP3 SLOAD PUSH2 0x429 SWAP2 SWAP1 PUSH2 0x51A JUMP JUMPDEST SWAP3 POP POP DUP2 SWAP1 SSTORE POP CALLVALUE PUSH1 0x1 PUSH1 0x0 DUP3 DUP3 SLOAD PUSH2 0x442 SWAP2 SWAP1 PUSH2 0x51A JUMP JUMPDEST SWAP3 POP POP DUP2 SWAP1 SSTORE POP CALLER PUSH20 0xFFFFFFFFFFFFFFFFFFFFFFFFFFFFFFFFFFFFFFFF AND PUSH32 0x2DA466A7B24304F47E87FA2E1E5A81B9831CE54FEC19055CE277CA2F39BA42C4 CALLVALUE PUSH1 0x40 MLOAD PUSH2 0x48F SWAP2 SWAP1 PUSH2 0x5ED JUMP JUMPDEST PUSH1 0x40 MLOAD DUP1 SWAP2 SUB SWAP1 LOG2 JUMP JUMPDEST PUSH1 0x0 DUP1 PUSH1 0x0 DUP4 PUSH20 0xFFFFFFFFFFFFFFFFFFFFFFFFFFFFFFFFFFFFFFFF AND PUSH20 0xFFFFFFFFFFFFFFFFFFFFFFFFFFFFFFFFFFFFFFFF AND DUP2 MSTORE PUSH1 0x20 ADD SWAP1 DUP2 MSTORE PUSH1 0x20 ADD PUSH1 0x0 KECCAK256 SLOAD SWAP1 POP SWAP2 SWAP1 POP JUMP JUMPDEST PUSH1 0x0 DUP2 SWAP1 POP SWAP2 SWAP1 POP JUMP JUMPDEST PUSH32 0x4E487B7100000000000000000000000000000000000000000000000000000000 PUSH1 0x0 MSTORE PUSH1 0x11 PUSH1 0x4 MSTORE PUSH1 0x24 PUSH1 0x0 REVERT JUMPDEST PUSH1 0x0 PUSH2 0x525 DUP3 PUSH2 0x4E1 JUMP JUMPDEST SWAP2 POP PUSH2 0x530 DUP4 PUSH2 0x4E1 JUMP JUMPDEST SWAP3 POP DUP3 DUP3 ADD SWAP1 POP DUP1 DUP3 GT ISZERO PUSH2 0x548 JUMPI PUSH2 0x547 PUSH2 0x4EB JUMP JUMPDEST JUMPDEST SWAP3 SWAP2 POP POP JUMP JUMPDEST PUSH1 0x0 DUP1 REVERT JUMPDEST PUSH1 0x0 PUSH20 0xFFFFFFFFFFFFFFFFFFFFFFFFFFFFFFFFFFFFFFFF DUP3 AND SWAP1 POP SWAP2 SWAP1 POP JUMP JUMPDEST PUSH1 0x0 PUSH2 0x57E DUP3 PUSH2 0x553 JUMP JUMPDEST SWAP1 POP SWAP2 SWAP1 POP JUMP JUMPDEST PUSH2 0x58E DUP2 PUSH2 0x573 JUMP JUMPDEST DUP2 EQ PUSH2 0x599 JUMPI PUSH1 0x0 DUP1 REVERT JUMPDEST POP JUMP JUMPDEST PUSH1 0x0 DUP2 CALLDATALOAD SWAP1 POP PUSH2 0x5AB DUP2 PUSH2 0x585 JUMP JUMPDEST SWAP3 SWAP2 POP POP JUMP JUMPDEST PUSH1 0x0 PUSH1 0x20 DUP3 DUP5 SUB SLT ISZERO PUSH2 0x5C7 JUMPI PUSH2 0x5C6 PUSH2 0x54E JUMP JUMPDEST JUMPDEST PUSH1 0x0 PUSH2 0x5D5 DUP5 DUP3 DUP6 ADD PUSH2 0x59C JUMP JUMPDEST SWAP2 POP POP SWAP3 SWAP2 POP POP JUMP JUMPDEST PUSH2 0x5E7 DUP2 PUSH2 0x4E1 JUMP JUMPDEST DUP3 MSTORE POP POP JUMP JUMPDEST PUSH1 0x0 PUSH1 0x20 DUP3 ADD SWAP1 POP PUSH2 0x602 PUSH1 0x0 DUP4 ADD DUP5 PUSH2 0x5DE JUMP JUMPDEST SWAP3 SWAP2 POP POP JUMP JUMPDEST PUSH2 0x611 DUP2 PUSH2 0x4E1 JUMP JUMPDEST DUP2 EQ PUSH2 0x61C JUMPI PUSH1 0x0 DUP1 REVERT JUMPDEST POP JUMP JUMPDEST PUSH1 0x0 DUP2 CALLDATALOAD SWAP1 POP PUSH2 0x62E DUP2 PUSH2 0x608 JUMP JUMPDEST SWAP3 SWAP2 POP POP JUMP JUMPDEST PUSH1 0x0 PUSH1 0x20 DUP3 DUP5 SUB SLT ISZERO PUSH2 0x64A JUMPI PUSH2 0x649 PUSH2 0x54E JUMP JUMPDEST JUMPDEST PUSH1 0x0 PUSH2 0x658 DUP5 DUP3 DUP6 ADD PUSH2 0x61F JUMP JUMPDEST SWAP2 POP POP SWAP3 SWAP2 POP POP JUMP JUMPDEST PUSH1 0x0 DUP3 DUP3 MSTORE PUSH1 0x20 DUP3 ADD SWAP1 POP SWAP3 SWAP2 POP POP JUMP JUMPDEST PUSH32 0x56756C6E657261626C655661756C743A20696E73756666696369656E74206261 PUSH1 0x0 DUP3 ADD MSTORE PUSH32 0x6C616E6365000000000000000000000000000000000000000000000000000000 PUSH1 0x20 DUP3 ADD MSTORE POP JUMP JUMPDEST PUSH1 0x0 PUSH2 0x6CE PUSH1 0x25 DUP4 PUSH2 0x661 JUMP JUMPDEST SWAP2 POP PUSH2 0x6D9 DUP3 PUSH2 0x672 JUMP JUMPDEST PUSH1 0x40 DUP3 ADD SWAP1 POP SWAP2 SWAP1 POP JUMP JUMPDEST PUSH1 0x0 PUSH1 0x20 DUP3 ADD SWAP1 POP DUP2 DUP2 SUB PUSH1 0x0 DUP4 ADD MSTORE PUSH2 0x6FD DUP2 PUSH2 0x6C1 JUMP JUMPDEST SWAP1 POP SWAP2 SWAP1 POP JUMP JUMPDEST PUSH1 0x0 DUP2 SWAP1 POP SWAP3 SWAP2 POP POP JUMP JUMPDEST POP JUMP JUMPDEST PUSH1 0x0 PUSH2 0x71F PUSH1 0x0 DUP4 PUSH2 0x704 JUMP JUMPDEST SWAP2 POP PUSH2 0x72A DUP3 PUSH2 0x70F JUMP JUMPDEST PUSH1 0x0 DUP3 ADD SWAP1 POP SWAP2 SWAP1 POP JUMP JUMPDEST PUSH1 0x0 PUSH2 0x740 DUP3 PUSH2 0x712 JUMP JUMPDEST SWAP2 POP DUP2 SWAP1 POP SWAP2 SWAP1 POP JUMP JUMPDEST PUSH32 0x56756C6E657261626C655661756C743A207472616E73666572206661696C6564 PUSH1 0x0 DUP3 ADD MSTORE POP JUMP JUMPDEST PUSH1 0x0 PUSH2 0x780 PUSH1 0x20 DUP4 PUSH2 0x661 JUMP JUMPDEST SWAP2 POP PUSH2 0x78B DUP3 PUSH2 0x74A JUMP JUMPDEST PUSH1 0x20 DUP3 ADD SWAP1 POP SWAP2 SWAP1 POP JUMP JUMPDEST PUSH1 0x0 PUSH1 0x20 DUP3 ADD SWAP1 POP DUP2 DUP2 SUB PUSH1 0x0 DUP4 ADD MSTORE PUSH2 0x7AF DUP2 PUSH2 0x773 JUMP JUMPDEST SWAP1 POP SWAP2 SWAP1 POP JUMP JUMPDEST PUSH32 0x56756C6E657261626C655661756C743A207A65726F206465706F736974000000 PUSH1 0x0 DUP3 ADD MSTORE POP JUMP JUMPDEST PUSH1 0x0 PUSH2 0x7EC PUSH1 0x1D DUP4 PUSH2 0x661 JUMP JUMPDEST SWAP2 POP PUSH2 0x7F7 DUP3 PUSH2 0x7B6 JUMP JUMPDEST PUSH1 0x20 DUP3 ADD SWAP1 POP SWAP2 SWAP1 POP JUMP JUMPDEST PUSH1 0x0 PUSH1 0x20 DUP3 ADD SWAP1 POP DUP2 DUP2 SUB PUSH1 0x0 DUP4 ADD MSTORE PUSH2 0x81B DUP2 PUSH2 0x7DF JUMP JUMPDEST SWAP1 POP SWAP2 SWAP1 POP JUMP INVALID LOG2 PUSH5 0x6970667358 0x22 SLT KECCAK256 CODESIZE SLT 0xDA PUSH28 0x4D85F0F5DCE3B64277DE89223475AE61A2C26DE539B8F6FB51EF182A PUSH5 0x736F6C6343 STOP ADDMOD XOR STOP CALLER "
        },
        "methodIdentifiers": {
          "balances(address)": "27e235e3",
          "deposit()": "d0e30db0",
          "getBalance(address)": "f8b2cb4f",
          "totalDeposits()": "7d882097",
          "withdraw(uint256)": "2e1a7d4d"
        }
      }
    }
  }
}